:020000040800F2
:10000000E0060020C5000008CD000008CF00000871
:1000100000000000000000000000000000000000E0
:10002000000000000000000000000000D1000008F7
:100030000000000000000000D3000008731F00084B
:10004000D700000800000000D7000008D700000813
:10005000D70000087D080008D7000008D700000876
:1000600000000000D7000008D7000008D7000008F3
:10007000D7000008D7000008D700000800000000E3
:10008000D700000800000000000000003D2000082C
:1000900000000000D7000008D7000008D7000008C3
:1000A00000000000D700000800000000D700000892
:1000B0000348854600F008FA00480047ED23000891
:1000C000E00600200448804704480047FEE7FEE7BA
:1000D000FEE7FEE7FEE7FEE7E11F0008B1000008CB
:1000E00030B50B46014600202022012409E00D46D0
:1000F000D5409D4205D31D469540491B2546954058
:1001000040191546521E002DF1DC30BD70B500249B
:100110002546002801DA01244042002901DA0125A0
:100120004942FFF7DDFFAC4200D04042002C00D036
:10013000494270BD10B5202A04DB0846203AD04061
:10014000002110BD0B46D340D0402024A21A91407C
:100150000843194610BD03460B439B0703D009E033
:1001600008C9121F08C0042AFAD203E00B780370F2
:10017000401C491C521EF9D27047F8B502464A404D
:10018000D40F42004B0052085B089A4202D202464A
:10019000084611464A0023D0C30D4A00DDB2120EB4
:1001A000AD1A202D35DA49020126490AF6058A19C9
:1001B000002C00D0524220214F1B1146B9402A4149
:1001C0001018C20D9A4221D0002C17D0012D08DC46
:1001D000DA05801AD20F8019D207DBB200F0DCF802
:1001E000F8BDDA05801A012340001B06C0188018EC
:1001F0005A428018CA0F1043490007E04908C20755
:100200001143DA05801A80194008801800F0BCF804
:10021000F8BD61000122511A001BF7E70122D20745
:100220005140AAE70122D2075040A6E7024670B526
:100230004A40D30FDB0740002DD04A002AD0010EE0
:10024000140E000212020919400A520A8418E5012C
:1002500004465443000A120A2E045043A4194219BA
:10026000200CC543AA18120C0125AD03521C5219CB
:1002700012047F39240400D0521C104301D44000E2
:10028000491EC2B20C06C0092018401C4008802A32
:1002900002D003E0002070BD40084000002900DAD1
:1002A0000020184370BDC217C10F504010B5401850
:1002B000CA079623002100F06FF810BD0EB5C217D3
:1002C000C10F5040CA0740180021054B029301920C
:1002D00000910A460B4600F0A5F803B000BD0000EF
:1002E00033040000C20F410040020123400ADB0535
:1002F000D207090EC0187F2901DA0020704796291D
:1003000003DC9623591AC84001E096398840002A38
:10031000F4D040427047000070B5CD0F4A00090389
:100320000123090B1B0519430B4BED070024520D4C
:100330009A4201DA002070BD074B34339A4203DC45
:100340009A1AFFF7F7FE02E00449511888402C433F
:10035000F1D0404270BD0000FF030000CDFBFFFF65
:1003600010B5002904DB0124E40740428C412146FA
:10037000002B04DB1C460123DB075242A3418B42C6
:1003800000D1824210BD0000002904DA401C49005F
:1003900001D140084000704770B40024050C05D11D
:1003A0001024000402D1002921D01124050E01D10E
:1003B00000020834050F01D10001241D850F01D171
:1003C0008000A41C002801DB4000641C002908D028
:1003D00020252E1B0D46F540A14000D001212943C8
:1003E000084301061B1B000ADB1D02D5002070BC60
:1003F0007047DB05181880180029F8DA401C4900FE
:10040000F5D170BC40084000704710B5002B08DAE9
:100410000024401C614192185B411A4301D14008FD
:10042000400010BDF0B51FB482B005460C0003D0EB
:10043000084601F05DFF02E001F05AFF203002465D
:1004400000902146284600F051F8049B059A044686
:100450000F4618431143084314D0184610431BD0CD
:10046000009840210A1A18460599FFF763FE0546D1
:100470000E46009A0599049800F038F8084305D014
:10048000012004E02046394607B0F0BD0020C11726
:1004900005430E432C43374300990E986305401AD9
:1004A0007905E40A00220C43FD0A0A3002D5002037
:1004B0000146E9E70105101969410C9C0D9D0019E1
:1004C0006941FFF7A2FFDFE7064C0125064E05E074
:1004D000E36807CC2B430C3C98471034B442F7D365
:1004E000FFF7EAFD782500089825000810B5202AB6
:1004F00004DB0146203A9140002010BD91402023AA
:100500009C1A0346E3401943904010BDF8B50446D9
:1005100000200090206881688907890F012905D192
:100520000168C9072CD1C168090429D48168154A1A
:10053000102611400125002915D1816829438160C9
:10054000124811490068FFF7CBFD00E0401E009003
:100550000028FBD100F09AFE07460CE000F096FE62
:10056000C01B022807D9606C30436064A06C28432C
:10057000A0640120F8BD20680068C043C007EDD129
:100580000020F8BD1700008040420F00040000204A
:10059000F8B50446C06800260673E1681248086191
:1005A000E06801274775E068C675E06886752069D0
:1005B000C16A30468847E568287D0F2813D906228E
:1005C0000A490B48FFF7C7FD062020702E75E0682A
:1005D0000773E0684675E068C775E068867520694E
:1005E000C16A00208847F8BD6E250008003C00085D
:1005F0009200002070B504460069E168808AC881D5
:1006000060680023007A01280DD1E068174A03755D
:1006100015480A210372908A401E00B29082515EF2
:10062000884200DA91826068007A02280ED1E06880
:100630000C220375606803722069818A491C09B223
:1006400081822069825E914200DD8282A06802255B
:100650008079012802D100F02DFA2570E068007D34
:10066000322800D9257070BD40010020840200208E
:10067000F8B50446C068002505732069407F00284E
:1006800001D0164800E01648E16802270861E068DA
:10069000144E4575E1680120C8752169897F0029DC
:1006A0000DD0E16888752069C16A01208847102053
:1006B000305E5A2802DD277020698577F8BDE06832
:1006C00085752069C16A002088470E20305E318B15
:1006D0008842F3DA27707577F8BD000062250008BC
:1006E000662500088402002010B5024800F004F8D6
:1006F00010BD00005401002010B50446C089401C04
:10070000E0812068804760712179814201D1A07128
:1007100000E02071E27900200121002A0CD0227A29
:10072000002AA27902D0002A04D005E0002A03D0D2
:10073000217201E061722072227B002A05D0A1792A
:10074000002908D06089401C06E0A279002A01D067
:100750006081217310BD2073608110BD0748064978
:10076000016000210171417181714172C171017299
:1007700041810173C1817047312400085401002078
:10078000F8B50446C068012606732069C17F0329B5
:1007900018D0008AE1680025C881E0680E214575FF
:1007A00020690427415E028B914212DA1021122245
:1007B000415E825E9142C16A06DA01208847E068A4
:1007C000867508E0408AE5E700208847E06885757F
:1007D00001E0277046772069017F0029C17F03D09F
:1007E00000290CD005772DE0002905D1458320692B
:1007F000018A418420690677E068C57522E02221DC
:100800001022415E825E881A6428E06801DDC675A8
:1008100000E0C57521691020085E5A2812DA498B5C
:1008200064290FD9134922228A5E801AFFF746FDF8
:10083000490049080022104BFFF792FD02D22770B1
:10084000206986776068007A002803D00320207032
:10085000A068C581A068FF2140892D31884207D951
:100860002069C07F032803D105202070E06805754A
:10087000F8BD0000840200200000104010B50220E6
:1008800000F048FC10BDFEE710B5044601680120E9
:10089000884761680120884761680020884721688F
:1008A0000020884710BD10B5044601680120884724
:1008B00061680020884761680120884710BD70B5D5
:1008C00016460C460546FFF7DFFF2146284600F096
:1008D00008F83146284600F004F82846FFF7E3FF01
:1008E00070BD70B50E46044600256168300601D51E
:1008F000012000E000208847216801208847700619
:10090000060E2168002088476D1CEDB2082DECD33F
:1009100061680120884721680120884721680020FC
:10092000884770BD06490020C86106480169042255
:1009300011430161016940221143016170470000C8
:100940009800002000200240064A0021D16106499B
:100950000A6902231A430A61486108694022104368
:1009600008617047980000200020024010B5054B38
:100970000022DA61044A13690124234313610180D0
:1009800010BD0000980000200020024010B50B4A66
:100990000020D168CB060A4904D5C8690223184350
:1009A000C8611020D3685B0705D5CB6901242343B8
:1009B000CB6104210843D06010BD0000002002403C
:1009C0009800002070B5044600F060FC0546104E0B
:1009D0000AE0601C08D0002C04D000F057FC401B3B
:1009E000A04201D9032070BDF068C007F1D1F068C2
:1009F000800601D52020F060F068C00602D4F068BF
:100A0000400703D5FFF7C2FF012070BD002070BD75
:100A10000020024010B500F07BF8034901F09CFC77
:100A20000249C88110BD000084010020840200201A
:100A3000F0B51C4D1C4F85B00024062632463946C1
:100A400028460394FFF787FB28460078582820D0D3
:100A500000F044FB0120029003A90197009468462E
:100A600000F0A4FA324611492846FFF774FB2A88A1
:100A70000023E1190120AD1C00F0F2FAA41CE4B23D
:100A8000B442F4D300F0E2FA324639460548FFF7A3
:100A900062FB0448064942888A828088488205B001
:100AA000F0BD000092000020003C00087225000804
:100AB00084020020F0B5134D85B00024582128464B
:100AC00003940170104906264A8A8280898A4180EF
:100AD00000F004FB01200D4F029003A90197009440
:100AE000684600F063FA2A880023E1190120AD1C52
:100AF00000F0B6FAA41CA4B2B442F4D300F0A6FAF3
:100B000005B0F0BD9200002084020020003C0008E7
:100B100010B5064800F01CFA0A21044800F0B8F9A4
:100B2000024800F0D7F880B210BD0000B8000020E5
:100B3000F8B505460446403528780026012808D037
:100B400001202870206881688907890F012908D150
:100B500001E00220F8BD0168C9072AD1C168090473
:100B600027D4616CFF220132914302221143616458
:100B7000816892071143816000F088FB07460EE010
:100B800000F084FBC01B022809D9606C0221884355
:100B9000102108436064002028700120F8BD2068FF
:100BA00080680028ECDB606C80088000401C60647A
:100BB00004E0606C20210843606401260020287056
:100BC0003046F8BDF8B5002504464034009522783B
:100BD000012A39D00123237002689668760767D40A
:100BE000384F4E68BE424DD0966A0F78BB401E43C8
:100BF00096620123826B1B079A421FD0012A1DD0E7
:100C0000022A1BD0032A19D0042A17D0052A15D08E
:100C1000062A13D0072A11D002688B685669760716
:100C2000760FB3420AD05369DB08DB0053610068DA
:100C300042690B7A5B075B0F1A4342610868102810
:100C400004D0112802D038E00220F8BD1E4B9A686B
:100C5000102807D00120800502439A6008681028F8
:100C600003D02AE00120C005F6E7194817490068BB
:100C7000FFF736FA0A21484300E0401E00900028A2
:100C8000FBD11AE0906A0E78B340984390620868EE
:100C9000102801D0112810D10B498A68102804D0DF
:100CA0000120800582438A6007E00120C005F9E742
:100CB000416C202211434164012500202070284608
:100CC000F8BD0000011000000027014040420F0065
:100CD000040000200068006C70470000F8B5002593
:100CE0000446002803D0606C002802D008E00120F0
:100CF000F8BD0020A06440210855204600F0A8F867
:100D0000606C1022104270D12068816849076CD451
:100D1000616C130199430223194361648168890757
:100D2000890F012905D10168C9070FD1C1680904DC
:100D30000CD4C1681826B143A6683143C16020684D
:100D40000169666889008908314301612068C168CA
:100D50003D4E3140C160A0698103E069C003014399
:100D6000206A46033143666B012E02D0012636030A
:100D700000E000263143E66831432669022E08D0A0
:100D800000263143266B76003143666A012E02D07D
:100D90000BE00426F5E7002828D0606C20263043BD
:100DA0006064A06C01263043A064A06A0646FF3E42
:100DB000C23E02D0E66A304301432068C6680E4353
:100DC000C6600126A06B3607B04213D0012811D0AF
:100DD00002280FD003280DD004280BD0052809D0F5
:100DE000062807D0072805D010E028E001200004DD
:100DF0000143DAE720684669F608F6004661206894
:100E00004669278F7F077F0F3E4346612068C06891
:100E10000E4E3040884207D10020A064606C8008EC
:100E20008000401C606408E0606C9843104360647C
:100E3000A06C01210843A06401252846F8BD606C20
:100E400010436064F8E700001902FEFFE7FF3F83EC
:100E500000B500680C4987B0884212D10B488269FE
:100E600041150A4382618069084005900220009084
:100E7000032001900020029009206946C00600F07E
:100E800055F907B000BD00000024014000100240E9
:100E9000F8B504464069274640370D4608280BD070
:100EA0002068C068C00709D0606C202108436064D6
:100EB000002038700120F8BD082600E00C2600F064
:100EC000E5F9009011E0681C0FD0002D05D000F06E
:100ED000DDF90099401AA84207D9606C0421084343
:100EE0006064002038700320F8BD2068006830423C
:100EF000E9D0606C01214902084360642068C16840
:100F00000C220905890F00291AD1216A002917D15D
:100F10000168090714D5816801234907002908DB06
:100F2000416891434160606C1902884318436064D2
:100F300006E0606C202108436064A06C1843A06444
:100F4000A069002801D1206802600020F8BD0000DF
:100F500070B50446216800208968490721D42546D8
:100F60004035297801291CD001212970E169012926
:100F700004D02046FFF7CAFA002811D1616C0A4A52
:100F80001140FF220132114361640021A1642970E4
:100F900022681C21116021688A6804231A438A6030
:100FA00070BD022070BD0000FEF1FFFFF8B50546E0
:100FB00023480F46017E012601290BD0012101762D
:100FC0002868204C012807D02046FFF7FBFC0028AA
:100FD00013D030E00220F8BD2046FFF7F3FC0028D4
:100FE00029D1FFF79FFC2046FFF7ECFC0646164888
:100FF00001690422914301611DE00020C043386073
:101000006C6812E02046FFF79FFC0E48FFF7DAFC01
:1010100006460D480169022291430161002E01D06C
:101020003C6008E0012080022418A86869688002FA
:101030004018A042E6D80248002101763046F8BDAB
:101040009800002050C300000020024003480169BE
:1010500080221143016100207047000000200240FF
:10106000F0B51FB405461A480024017E16461F46F7
:10107000012907D0012101761648FFF7A3FC0028BB
:1010800003D021E0022005B0F0BD012D1AD0022DC1
:1010900018D0042516E0220130463946FFF74AF8F9
:1010A00081B2019862001018FFF760FC0948FFF751
:1010B00089FC09490A69520852000A61002803D1D3
:1010C000641CE4B2AC42E6D3014900220A76DAE7B6
:1010D0009800002050C3000000200240054801692C
:1010E000090605D504494160044941600020704764
:1010F000012070470020024023016745AB89EFCDF6
:10110000022803D10249887D401C88757047000081
:101110008402002010B504494A69024202D04861A5
:10112000FFF7EEFF10BD000000040140F8B50022FB
:101130008DE001249440A44623407DD04C68022CCD
:1011400001D0122C0CD1D408A4002618356A5407FB
:10115000E40E0F27A740BD430F69A7402F43376216
:10116000066855000324AC400F79A643BF07BF0FA4
:10117000AF40374307604E68012E05D0022E03D0E2
:10118000112E01D0122E0ED18668CF68A643AF4033
:101190003743876047686646B7430E79F606F60F11
:1011A00096403E434660C668A6438C68AC403443D4
:1011B000C4604C68E40049D5284CA5690126354334
:1011C000A561A469950834400094254CAD002F1901
:1011D000BD689407240F0F26A640B5430926F606DE
:1011E000B04201D100260FE01E4EB04201D10126CF
:1011F0000AE01D4EB04201D1022605E01B4EB0426E
:1012000001D1032600E00526A6402E43BE60184DFE
:101210002C684E689C43F60300D51C432C606C6818
:101220004E689C43B60300D51C436C60AC684E68A6
:101230009C43F60202D500E008E01C43AC60EC6879
:101240004E689C43B60200D51C43EC60521C0B68F0
:101250001C46D44000D06CE7F8BD000000100240EE
:10126000000001400004004800080048000C00484D
:10127000000401400069084000D001207047002AA6
:1012800001D08161704781627047000001480068A9
:10129000704700000000002002480168491C0160FE
:1012A000704700000000002010B5064801681022B9
:1012B00011430160002000F007F800F017F800204B
:1012C00010BD00000020024010B5044600F0CEF82A
:1012D0007D21C900FEF704FF00F0E4FA0022214658
:1012E000501E00F029F8002010BD000008B50C4881
:1012F00081690122114381618069104000220090C0
:101300001146501F00F018F800221146901E00F000
:1013100013F800221146501E00F00EF808BD000020
:1013200000100240C106C90E012088400149086032
:101330007047000000E100E010B500F067FD10BD4F
:10134000F8B5044644480E460068C007C00FB042D6
:101350000AD24148016849084900314301600068E8
:10136000C007C00FB0425CD120783C4F800705D544
:101370007868F0218843A168084378602078C00726
:101380003FD06068012813D03968022813D089073C
:10139000002946DA79688908890001437960FFF7F6
:1013A00075FF0546606801280DD0022817D024E09B
:1013B00039688903ECE78901EAE7FFF767FF411B1A
:1013C0002748814217D878680007800F0128F4D198
:1013D00017E0FFF75BFF411B214881420BD878687B
:1013E0000007800F0228F4D10BE0FFF74FFF411BED
:1013F0001B48814201D90320F8BD78680007800F9F
:10140000F3D115480168C907C90FB1420BD901686A
:1014100049084900314301600068C007C00FB0426D
:1014200001D00120F8BD2078400706D57868072153
:1014300009028843E1680843786000F01DF8796884
:10144000084A0906090F515CC84007490860002096
:10145000FFF73AFF0020F8BD0020024000100240D4
:10146000881300004425000804000020014800689B
:10147000704700000400002010B513A00FC888B00A
:101480006C460FC414A00FC80FC4174B5A680C2029
:1014900011460140154804290FD008290DD19102A9
:1014A000090F6C46645CD96A04AB0907090F595CE3
:1014B000D20304D5FEF714FE604308B010BD0C49FA
:1014C00020464843F9E7000002030405060708091F
:1014D0000A0B0C0D0E0F101001020304050607087D
:1014E000090A0B0C0D0E0F100010024000127A00BA
:1014F00000093D00FEB504460078D04DC00746D037
:1015000068680007800F012807D068680007800F0F
:10151000022809D16868C00306D52868800336D53B
:10152000606800287ED032E001216068090401284B
:101530000AD08A00002801D005280FD028688843E7
:1015400028602868904301E02868084328606068A4
:10155000002810D0FFF79AFE064608E028681043DE
:101560002860F1E7FFF792FE801B64286FD8286897
:101570008003F7D50BE0FFF789FE064604E0FFF78E
:1015800085FE801B6428F1D828688003F7D4207872
:101590000126800700283BDA68680007800F07D023
:1015A00068680007800F022809D16868C00306D464
:1015B0002868800715D5E068012833D111E0E0687C
:1015C0000028286815D030432860FFF75FFE0746E3
:1015D00004E0FFF75BFEC01B0228C7D8286880071D
:1015E000F7D52868F82188432169C9000843286095
:1015F0000EE0400840002860FFF748FE074604E080
:10160000FFF744FEC01B0228B0D828688007F7D433
:101610002078000724D5E0690028686A10D030439C
:10162000686200E007E1FFF731FE074604E0FFF7DC
:101630002DFEC01B022899D8686A8007F7D50FE0F5
:10164000400840006862FFF721FE074605E09DE084
:10165000FFF71CFEC01B022888D8686A8007F7D4F1
:10166000207804274007002860DA00200190E8690C
:10167000C00008D4E969B8060143E961E96901409D
:101680000120009101906E480168C90511D40168DC
:10169000821511430160FFF7F9FD009005E0FFF7A7
:1016A000F5FD0099401A642870D865480068C005A7
:1016B000F5D5A06801280AD0002801D0052810D04F
:1016C000286A400840002862286AB84301E0286A76
:1016D00030432862A068002812D0FFF7D7FD0090A1
:1016E0000AE0286A38432862F1E7FFF7CFFD009946
:1016F000411A5448814249D8286A8007F5D50DE03F
:10170000FFF7C4FD009006E0FFF7C0FD0099411A05
:101710004C4881423AD8286A8007F5D401980028BD
:1017200004D0E969012000078143E9612078C006FF
:1017300035D5606901280CD0401D686B23D0384333
:101740006863686B400840006863FFF79FFD0646CA
:1017500022E0686B38436863686B30436863FFF767
:1017600095FD064604E0FFF791FD801B02285BD83B
:10177000686B8007F7D5686BF8218843A169C900B9
:10178000084368630BE0B8436863F4E74CE0FFF795
:101790007DFD801B022847D8686B8007F7D4206A3C
:1017A000002846D069680907890F022943D001271C
:1017B0003F060228286805D0B8432860FFF766FD79
:1017C000044633E0B8432860FFF760FD064604E0B6
:1017D000FFF75CFD801B022826D828688001F7D41B
:1017E000E86AE16A000900010843E862616AA06AE8
:1017F000084369683D2212049143084368602868E1
:1018000038432860FFF742FD044604E0FFF73EFD41
:10181000001B022808D828688001F7D509E0FFF7E7
:1018200035FD001B022801D90320FEBD2868800178
:10183000F5D40020FEBD0120FEBD000000100240D6
:10184000007000408813000004220449042808693D
:1018500002D09043086170471043FBE700E000E0CE
:1018600000B500F0A7FD0E49012208790023401CB5
:10187000C0B208710A700A2804D10B714879401C63
:1018800048714A7048790A2804D14B718879401C04
:1018900088718A7088790A2801D18B71CA7000BD5D
:1018A0000C000020094910B5401E884201D90120D2
:1018B00010BD074C60610321081F00F0A7FA00204B
:1018C000A06107202061002010BD0000FFFFFF0085
:1018D00000E000E010B5FFF7C3FF10BD7047704790
:1018E00070B5040005D025462035687E002802D05A
:1018F00006E0012070BD00202876204600F00AF89E
:1019000002206876211D206800F0A0FB0120687687
:10191000002070BD08B50068094988420FD1094808
:10192000C26981150A43C261C06900220840009063
:1019300011461320FFF700FD1320FFF7F3FC08BD4D
:1019400000200040001002400222014620314A7669
:101950000068026801231A4302604B76002070473A
:10196000704770B50446006801690025C9438907BE
:10197000002915DBC168C943890711D4E91E01613B
:1019800001202076206880698007204602D0FFF77A
:10199000E7FF04E000F096F8204600F094F8257682
:1019A00020680169C943490717D4C168C943490779
:1019B00013D40421C9430161022020762068806984
:1019C0008005800F204602D0FFF7CAFF04E000F038
:1019D00079F8204600F077F8257620680169C94338
:1019E000090716D4C168C943090712D40821C9439D
:1019F0000161042020762068C0698007204602D05B
:101A0000FFF7AEFF04E000F05DF8204600F05BF861
:101A1000257620680169C943C90617D4C168C9433E
:101A2000C90613D41021C94301610820207620681B
:101A3000C0698005800F204602D0FFF791FF04E0C7
:101A400000F040F8204600F03EF825762068016955
:101A5000C943C90708D1C168C943C90704D1891E50
:101A60000161204600F030F820680169C943090689
:101A700009D4C168C943090605D48021C94301615D
:101A80002046FFF72BFF20680169C943490609D4A6
:101A9000C168C943490605D44021C94301612046B4
:101AA00000F013F820680169C943890609D4C168A8
:101AB000C943890605D42021C94301612046FFF7A7
:101AC0000EFF70BD704770477047704710B5054BEB
:101AD000002801D0002200E0012201211846FFF772
:101AE000CEFB10BD0014004800B5024800F091F88C
:101AF00000BD00008402002000B5024800F0AFF8ED
:101B000000BD00008402002010B515481349016093
:101B1000DB21C9438180FF21E13101810021622263
:101B2000C180D243428163228281C1811922028213
:101B300081750C4A02834183417781770222C27703
:101B40000246203211708184C18405211172064938
:101B5000C1620020FFF7BAFF10BD0000A470BD3EB7
:101B600084020020FC080000CD1A00080648074A3D
:101B7000817D13782030994202D100210170704795
:101B800001230370117070478402002008000020B8
:101B900070B50E490220085EFEF785FB06460C4C28
:101BA0000420205EFEF77FFB05460E20205EFEF738
:101BB0007AFB2168FEF73AFB2946FEF7DEFA31464A
:101BC000FEF72CFBFEF78EFB208270BD92000020FA
:101BD0008402002010B501780B0000F0A0FB07057F
:101BE000080B0E111417070000F03EF810BD00F0AE
:101BF000B5FA10BDFEF7C4FD10BD00F061FA10BDCE
:101C0000FEF736FD10BDFEF7C3FC10BDFEF7F2FC7B
:101C100010BD018A428A891A09B2C184C27F002A92
:101C200012D00323012A13D0022A15D0032A0AD185
:101C30002822125C914201DD0223C3775242914275
:101C400001DA0021C17770470029FCDB0121F9E7A7
:101C50000029F8DAC37770470029FBDD7047418B14
:101C6000491C418370470000C26800211173C3689A
:101C70000A4A1A61C2685175C268D175C268917505
:101C8000026920321278002A03D001220270C26851
:101C900011750069C16A0020084700006A25000824
:101CA0003EB5144812490160002141608160C16065
:101CB0008161C161016241620124C1620461042247
:101CC000446342610163FFF709F8002801D0FEF781
:101CD000DAFD01200003019000040290009469469F
:101CE0000448FEF76FFF002801D0FEF7CCFD3EBD93
:101CF00000240140B8000020F0B52A4887B04269AE
:101D0000012189050A43426142690A4005924269FC
:101D100049110A43426142690A40059242694900F9
:101D20000A4342614069204F08400590002201218A
:101D30003846FFF7A4FA032676020920002231462E
:101D4000C006FFF79CFA012400250094029569461D
:101D5000384603950194FFF7E9F9642000900920C3
:101D6000694601950294C006FFF7E0F90220009051
:101D70000E480190694602940D48FFF7D7F90920F3
:101D800001946946C006009603950294FFF7CEF9C8
:101D9000002211460520FFF7CFFA0520FFF7C2FA0F
:101DA00007B0F0BD00100240001400480000111000
:101DB0000004004810B509480749016000220721C6
:101DC0008260416031210261C160FFF789FD002816
:101DD00001D0FEF758FD10BD002000400401002096
:101DE000F8B50024084E27460C2060438519A878D2
:101DF000012804D1A868002801D08047AF70641C76
:101E0000E4B20A2CF0D3F8BD180000208307FF22AB
:101E1000DB0E9A408907090E994000280BDA00076B
:101E2000000F0838830808489B001818C3699343BB
:101E30000B43C3617047830804489B00181803686C
:101E400093430B430360704700ED00E000E400E0C3
:101E500008480749016008494160002101720122D8
:101E600042728272C1720173417301747047000043
:101E700049240008400100205724000810B50248FA
:101E800000F004F810BD000040010020F8B5044641
:101E900000688047E072606880472073E189491CD0
:101EA000E181E17A627A914202D1A27A904216D01F
:101EB000277C0125022200263B0000F030FA0504B1
:101EC00011202F3F53002672002902D0637B134359
:101ED0006373627B024362736172A0722574F8BD02
:101EE000637B9B061B0E6373002901D0134363734E
:101EF000DBB2034363736172A0722274F8BD637B2B
:101F00009B061B0E6373002901D013436373DAB27F
:101F1000024362736172A07203200DE0637B9B0633
:101F20001B0E6373002901D013436373DAB20243BB
:101F300062736172A07204202074F8BD607B8728F0
:101F400015D008DC1E2812D02D280ED04B280CD01E
:101F5000782806D10BE0B42807D0D22805D0E12894
:101F600005D0267266732674F8BD2572FAE72272D0
:101F7000F8E710B5FFF790F9FFF7ACFC10BD10B50E
:101F800090B0122000900120039005901020049042
:101F90000024069008946846FFF7ACFA002800D0A9
:101FA000FEE707200C900D940E9400210F940CA8CE
:101FB000FFF7C6F9002800D0FEE7FFF757FA7D21AA
:101FC000C900FEF78DF8FFF76DFC0420FFF73CFC1D
:101FD00000221146501EFFF7AFF910B010BD0000EF
:101FE000134801680122114301604168114A114000
:101FF00041600168104A11400160016801229204A9
:102000009143016041683F22120491434160C16ADB
:1020100009090901C162016BFF2214329143016376
:10202000416B49084900416300218160704700000D
:10203000001002400CB8FF08FFFFF6FE10B5024882
:10204000FFF78FFC10BD00000401002070B502688E
:10205000164C174EA04201D0B04204D11346702551
:102060004A68AB431A43134B134DA04208D0B04209
:1020700006D0124EB04203D0984201D0A84204D1FB
:1020800003263602B243CE68324302608A68C262D7
:102090000A688262A04203D0984201D0A84201D1CE
:1020A000096901630121416170BD0000002C0140FC
:1020B000000400400044014000480140002000406E
:1020C00070B50446E168012008732069E168408A20
:1020D000C881E06800254575E068C575E0688575CC
:1020E0002069C16A284688472069C16A002088475C
:1020F0006068007A01280ED1A068C5816068057209
:102100002069418A491E0AB2428220690621415E45
:102110008A4200DC41826068007A02280ED1A06801
:10212000C581606805722069418A491C0AB24282F1
:1021300020690821415E8A4200DD4182A0680225B3
:102140008079012802D1FEF7B5FC2570A068C0890E
:10215000FA2802D9FEF7AEFC257070BDC1680122D5
:102160000A730169C368498AD981C3680021597516
:10217000C368DA75C2689175C268127D142A05D9E0
:10218000022202700369DA77C26811750069C16AB8
:102190000020084710B50948074901600849416017
:1021A0000849816000210175C1760177112248211B
:1021B000FEF785FB10BD0000052500086401002026
:1021C000172500082925000810B5024800F004F87A
:1021D00010BD000064010020F8B50446007D401CDD
:1021E000C6B22675E07D002802D0E07E00280DD022
:1021F000207B012814D02169481C206109782176B0
:10220000411C216100786076087836E03749481C27
:1022100009782176421C22610078607610782CE0E3
:102220000E25655F314F28463F1D002D12DB0A2128
:10223000FDF76CFF795C21760A21FDF767FF785C7A
:10224000607628466421FDF761FF0A21FDF75EFFF5
:10225000785C12E0FEF732F849004908FEF75CF8B6
:1022600000B2E0810A21FDF751FF795C21760A2155
:10227000FDF74CFF785C60764020A0760321304665
:10228000FDF72EFF0023002903D1E07E002808D0AF
:10229000E376A07D8022002806D0207E10432076A1
:1022A00013E00120E076F4E7607D00280DD0F00710
:1022B00005D1207F411C2177022800D92377217F77
:1022C000204618300B5C13430B54227E68212046B5
:1022D000FEF7F5FA627E6A212046FEF7F0FAA27E4A
:1022E0006C212046FEF7EBFAF8BD000054250008EB
:1022F0002021020C01D010211046020A01D0104604
:102300000839020901D01046091F820801D0104681
:10231000891E420801D0881E7047081A704730B4E1
:102320007446641E2578641CAB4200D21D46635D72
:102330005B00E31830BC184702E008C8121F08C150
:10234000002AFAD170477047002001E001C1121F36
:10235000002AFBD17047000030B50C4D00222B88BD
:102360005C1CA4B22C80802B02D26300C85201E016
:102370000020288000204300CB5A401C9A18C0B28D
:102380008028F8D35002000C30BD000090000020DF
:1023900030B5074C00220C235343E55C854201D144
:1023A0001B195970521CD2B20A2AF4D330BD000056
:1023B00018000020F0B500200A4E0B4D01270C211B
:1023C000414389194A78012A07D14300EA5A541E29
:1023D000EC5202D28F708988E952401CC0B20A28A0
:1023E000EDD3F0BD18000020C8020020FEF75CFF0E
:1023F000FFF7C5FDFFF780FCFFF752FCFFF7DAFCA3
:102400000848FEF795FB0848FFF79EFA0A210548A1
:10241000FEF73EFD00F026F8FFF7E2FC0348FFF769
:10242000D9FBF9E7B800002004010020B402002025
:1024300010B509200421C006FEF71CFF002801D0BA
:10244000002010BD012010BD10B509202021C006BC
:10245000FEF710FF10BD10B509204021C006FEF7A1
:1024600009FF10BD70B5214C002525702048A060E3
:1024700020486060204820612048E060FFF7E8FCC9
:1024800001210220FFF784FFFEF768F901210846C9
:10249000FFF77EFFFFF77EFE01210020FFF778FFA8
:1024A000FFF732FBFEF7C4FA01210420FFF770FFAB
:1024B00001210520FFF76CFF01210620FFF768FFCF
:1024C00001210720FFF764FF01210820FFF760FFCB
:1024D00001210920FFF75CFFE06809490573E06806
:1024E0004575C5758575016170BD0000B402002099
:1024F00054010020400100208402002064010020DB
:1025000054250008024610B5012109204902C006E1
:10251000FEF7B5FE10BD024610B501210920890263
:10252000C006FEF7ACFE10BD70B50122092594026D
:10253000ED0621462846FEF7A2FE21462846FEF774
:1025400099FE70BD000000000000000001020304BD
:1025500006070809000000003F065B4F666D7D0717
:102560007F6F79406D007940760071713F00387758
:102570003900580000002C019825000800000020B8
:10258000980000003823000830260008980000203A
:1025900048060000482300080000000000127A00EE
:1025A000000000000000000000000000000001002A
:1025B000010000000A000000E90600080000000019
:1025C00064000000C92100080200000001000000B2
:1025D0007D1E00080400000001000000150A00082C
:1025E00005000000320000006D1B0008060000001E
:1025F00064000000911B0008070000006400000058
:10260000F91A00080800000032000000E91A00086A
:1026100000000000000000000000000000000000BA
:1026200000000000000000000000000000000000AA
:04000005080000B13E
:00000001FF
