:020000040800F2
:10000000A8070020C5000008CD000008CF000008A8
:1000100000000000000000000000000000000000E0
:10002000000000000000000000000000D1000008F7
:100030000000000000000000D3000008ED1D0008D3
:10004000D700000800000000D7000008D700000813
:10005000D700000875060008D7000008D700000880
:1000600000000000D7000008D7000008D7000008F3
:10007000D7000008D7000008D700000800000000E3
:10008000D700000800000000000000007D230008E9
:1000900000000000D7000008D7000008D7000008C3
:1000A00000000000D700000800000000D700000892
:1000B0000348854600F002FA00480047712700080F
:1000C000A80700200448804704480047FEE7FEE7F1
:1000D000FEE7FEE7FEE7FEE7591E0008B100000854
:1000E00030B50B46014600202022012409E00D46D0
:1000F000D5409D4205D31D469540491B2546954058
:1001000040191546521E002DF1DC30BD70B500249B
:100110002546002801DA01244042002901DA0125A0
:100120004942FFF7DDFFAC4200D04042002C00D036
:10013000494270BD10B5202A04DB0846203AD04061
:10014000002110BD0B46D340D0402024A21A91407C
:100150000843194610BD03460B439B0703D009E033
:1001600008C9121F08C0042AFAD203E00B780370F2
:10017000401C491C521EF9D27047F8B502464A404D
:10018000D40F42004B0052085B089A4202D202464A
:10019000084611464A0023D0C30D4A00DDB2120EB4
:1001A000AD1A202D35DA49020126490AF6058A19C9
:1001B000002C00D0524220214F1B1146B9402A4149
:1001C0001018C20D9A4221D0002C17D0012D08DC46
:1001D000DA05801AD20F8019D207DBB200F0D6F808
:1001E000F8BDDA05801A012340001B06C0188018EC
:1001F0005A428018CA0F1043490007E04908C20755
:100200001143DA05801A80194008801800F0B6F80A
:10021000F8BD61000122511A001BF7E70122D20745
:100220005140AAE70122D2075040A6E7024670B526
:100230004A40D30FDB0740002DD04A002AD0010EE0
:10024000140E000212020919400A520A8418E5012C
:1002500004465443000A120A2E045043A4194219BA
:10026000200CC543AA18120C0125AD03521C5219CB
:1002700012047F39240400D0521C104301D44000E2
:10028000491EC2B20C06C0092018401C4008802A32
:1002900002D003E0002070BD40084000002900DAD1
:1002A0000020184370BDC217C10F504010B5401850
:1002B000CA079623002100F069F810BD0EB5C217D9
:1002C000C10F5040CA0740180021054B029301920C
:1002D00000910A460B4600F09FF803B000BD0000F5
:1002E00033040000C20F410040020123400ADB0535
:1002F000D207090EC0187F2901DA0020704796291D
:1003000003DC9623591AC84001E096398840002A38
:10031000F4D04042704700004A0009030123090B52
:100320001B051943094B10B5520D9A4201DA002002
:1003300010BD064B34339A4203DC9A1AFFF7FAFEDB
:1003400010BD03495118884010BD0000FF03000094
:10035000CDFBFFFF10B5002904DB0124E407404278
:100360008C412146002B04DB1C460123DB07524253
:10037000A3418B4200D1824210BD0000002904DA63
:10038000401C490001D140084000704770B400246F
:10039000050C05D11024000402D1002921D011241C
:1003A000050E01D100020834050F01D10001241D02
:1003B000850F01D18000A41C002801DB4000641CD3
:1003C000002908D020252E1B0D46F540A14000D065
:1003D00001212943084301061B1B000ADB1D02D52E
:1003E000002070BC7047DB05181880180029F8DA67
:1003F000401C4900F5D170BC40084000704710B562
:10040000002B08DA0024401C614192185B411A431A
:1004100001D14008400010BDF0B51FB482B00546C0
:100420000C0003D0084602F00DF902E002F00AF9D0
:100430002030024600902146284600F051F8049BE7
:10044000059A04460F4618431143084314D0184632
:1004500010431BD0009840210A1A18460599FFF74F
:1004600069FE05460E46009A0599049800F038F892
:10047000084305D0012004E02046394607B0F0BD0E
:100480000020C11705430E432C43374300990E98B3
:100490006305401A7905E40A00220C43FD0A0A307C
:1004A00002D500200146E9E70105101969410C9CBD
:1004B0000D9D00196941FFF7A2FFDFE7064C0125FA
:1004C000064E05E0E36807CC2B430C3C98471034FC
:1004D000B442F7D3FFF7F0FD682800088828000829
:1004E00010B5202A04DB0146203A9140002010BDBF
:1004F000914020239C1A0346E3401943904010BDCD
:10050000F8B5044600200090206881688907890FAB
:10051000012905D10168C9072CD1C168090429D472
:100520008168154A102611400125002915D18168DE
:1005300029438160124811490068FFF7D1FD00E0AE
:10054000401E00900028FBD100F0E0FD07460CE0C3
:1005500000F0DCFDC01B022807D9606C30436064EA
:10056000A06C2843A0640120F8BD20680068C04347
:10057000C007EDD10020F8BD1700008040420F00F9
:100580000400002070B5044640880022401C80B260
:1005900060802388984201D300206080638860686F
:1005A0005B00C1520020218805E0636845005B5B69
:1005B0009A18401C80B28142F7D81046FFF790FD90
:1005C00080B2208170BD0000044880210180C11FDD
:1005D000F93941600021418001817047800300208A
:1005E00010B5024800F004F810BD00009C01002086
:1005F00010B504460068804760712179814201D1BD
:10060000A07100E02071E27900200121002A0CD0C5
:10061000627A002AA27902D0002A04D005E0002ADA
:1006200003D0617201E021726072227B002A05D042
:10063000A179002908D06089401C06E0A279002A2F
:1006400001D06081217310BD2073608110BD000056
:1006500007480649016000210171417181710172F1
:10066000C17141724181017370470000C1270008C8
:100670009C01002010B5022000F08CFC10BDFEE7AC
:1006800010B5044601680120884761680120884749
:1006900061680020884721680020884710BD10B598
:1006A0000446016801208847616800208847616826
:1006B0000120884710BD70B516460C460546FFF769
:1006C000DFFF2146284600F008F83146284600F0B2
:1006D00004F82846FFF7E3FF70BD70B50E460446E8
:1006E00000256168300601D5012000E00020884720
:1006F0002168012088477006060E2168002088477F
:100700006D1CEDB2082DECD361680120884721688B
:100710000120884721680020884770BD06490020D5
:10072000C861064801690422114301610169402240
:100730001143016170470000E000002000200240EA
:10074000064A0021D16106490A6902231A430A6157
:10075000486108694022104308617047E0000020AA
:100760000020024010B5054B0022DA61044A1369EB
:10077000012423431361018010BD0000E00000202C
:100780000020024010B50B4A0020D168CB060A4970
:1007900004D5C86902231843C8611020D3685B07D9
:1007A00005D5CB6901242343CB6104210843D060E4
:1007B00010BD000000200240E000002070B504469B
:1007C00000F0A4FC0546104E0AE0601C08D0002C86
:1007D00004D000F09BFC401BA04201D9032070BD57
:1007E000F068C007F1D1F068800601D52020F060E4
:1007F000F068C00602D4F068400703D5FFF7C2FFD7
:10080000012070BD002070BD0020024010B51448CA
:1008100000692030007800280CD0114800691021B0
:10082000415E46291ADA012280210920C00600F023
:1008300066FC13E00A480078072805D100228021D1
:100840000920C00600F05BFC05480078032805D1AC
:10085000012280210920C00600F051FC10BD0000DB
:100860005402002010B500F08DF801460248FFF751
:1008700089FE0249C88110BD8003002024020020A7
:10088000F0B51E4D85B000240A2632461C49284684
:100890000394FFF760FC2F463878582822D000F0E8
:1008A00057FB1748019001200290009403A9684665
:1008B00000F0B6FA324613492846FFF74CFC1048C0
:1008C0002A88211800230120AD1C00F003FBA41C82
:1008D000E4B2B442F3D300F0F3FA324608490748D1
:1008E000FFF739FC084879888182B9884182074836
:1008F000F98881823989418205B0F0BD98030020D2
:10090000003C00085C280008F401002024020020BC
:10091000F0B5184D85B00024582128460394017085
:1009200015490A264A8A8280898A418013494A8A5F
:100930000281898AC18000F00BFB0120104F0290D8
:1009400003A901970094684600F06AFA2A880023F8
:10095000E1190120AD1C00F0BDFAA41CA4B2B44200
:10096000F4D3324639460348FFF7F5FB00F0A8FA06
:1009700005B0F0BD98030020F401002024020020FF
:10098000003C000810B5064800F01CFA0A21044893
:1009900000F0B8F9024800F0D7F880B210BD0000AE
:1009A00000010020F8B505460446403528780026A9
:1009B000012808D001202870206881688907890FE4
:1009C000012908D101E00220F8BD0168C9072AD138
:1009D000C168090427D4616CFF22013291430222CD
:1009E00011436164816892071143816000F08EFBBE
:1009F00007460EE000F08AFBC01B022809D9606C94
:100A000002218843102108436064002028700120DF
:100A1000F8BD206880680028ECDB606C80088000EE
:100A2000401C606404E0606C20210843606401267F
:100A3000002028703046F8BDF8B500250446403443
:100A400000952278012A39D0012323700268966824
:100A5000760767D4384F4E68BE424DD0966A0F78FD
:100A6000BB401E4396620123826B1B079A421FD034
:100A7000012A1DD0022A1BD0032A19D0042A17D01C
:100A8000052A15D0062A13D0072A11D002688B68D0
:100A900056697607760FB3420AD05369DB08DB004C
:100AA0005361006842690B7A5B075B0F1A4342612E
:100AB0000868102804D0112802D038E00220F8BDC0
:100AC0001E4B9A68102807D00120800502439A60C7
:100AD0000868102803D02AE00120C005F6E719486D
:100AE00017490068FFF7FCFA0A21484300E0401E5E
:100AF00000900028FBD11AE0906A0E78B34098432A
:100B000090620868102801D0112810D10B498A681A
:100B1000102804D00120800582438A6007E001206C
:100B2000C005F9E7416C20221143416401250020F2
:100B300020702846F8BD0000011000000027014089
:100B400040420F00040000200068006C7047000065
:100B5000F8B500250446002803D0606C002802D0B8
:100B600008E00120F8BD0020A0644021085520467F
:100B700000F0A8F8606C1022104270D120688168E3
:100B800049076CD4616C13019943022319436164D2
:100B900081688907890F012905D10168C9070FD12B
:100BA000C16809040CD4C1681826B143A668314352
:100BB000C160206801696668890089083143016164
:100BC0002068C1683D4E3140C160A0698103E06981
:100BD000C0030143206A46033143666B012E02D0F5
:100BE0000126360300E000263143E66831432669DA
:100BF000022E08D000263143266B76003143666A08
:100C0000012E02D00BE00426F5E7002828D0606C06
:100C1000202630436064A06C01263043A064A06AA3
:100C20000646FF3EC23E02D0E66A304301432068DA
:100C3000C6680E43C6600126A06B3607B04213D0CB
:100C4000012811D002280FD003280DD004280BD082
:100C5000052809D0062807D0072805D010E028E08D
:100C6000012000040143DAE720684669F608F6002F
:100C7000466120684669278F7F077F0F3E434661A4
:100C80002068C0680E4E3040884207D10020A06422
:100C9000606C80088000401C606408E0606C9843D1
:100CA00010436064A06C01210843A064012528461C
:100CB000F8BD606C10436064F8E700001902FEFFA5
:100CC000E7FF3F8300B500680C4987B0884212D126
:100CD0000B48826941150A4382618069084005908A
:100CE0000120009003200190002002900920694615
:100CF000C00600F05BF907B000BD00000024014011
:100D000000100240F8B504464069274640370D46BA
:100D100008280BD02068C068C00709D0606C20216B
:100D200008436064002038700120F8BD082600E008
:100D30000C2600F0EBF9009011E0681C0FD0002D9C
:100D400005D000F0E3F90099401AA84207D9606C79
:100D5000042108436064002038700320F8BD206837
:100D600000683042E9D0606C0121490208436064A8
:100D70002068C1680C220905890F00291AD1216A4F
:100D8000002917D10168090714D581680123490793
:100D9000002908DB416891434160606C1902884377
:100DA0001843606406E0606C202108436064A06C16
:100DB0001843A064A069002801D1206802600020C7
:100DC000F8BD000070B50446216800208968490715
:100DD00021D425464035297801291CD001212970CC
:100DE000E169012904D02046FFF78AFB002811D1D0
:100DF000616C0A4A1140FF220132114361640021F3
:100E0000A164297022681C21116021688A6804236A
:100E10001A438A6070BD022070BD0000FEF1FFFF22
:100E2000F8B5054623480F46017E012601290BD05F
:100E3000012101762868204C012807D02046FFF7C1
:100E4000BDFC002813D030E00220F8BD2046FFF79B
:100E5000B5FC002829D1FFF761FC2046FFF7AEFC66
:100E60000646164801690422914301611DE00020F5
:100E7000C04338606C6812E02046FFF761FC0E4802
:100E8000FFF79CFC06460D4801690222914301616F
:100E9000002E01D03C6008E0012080022418A868E0
:100EA000696880024018A042E6D802480021017615
:100EB0003046F8BDE000002050C300000020024092
:100EC000034801698022114301610020704700003E
:100ED00000200240F0B51FB405461A480024017EE8
:100EE00016461F46012907D0012101761648FFF753
:100EF00065FC002803D021E0022005B0F0BD012DE3
:100F00001AD0022D18D0042516E0220130463946A9
:100F1000FFF710F981B2019862001018FFF722FC68
:100F20000948FFF74BFC09490A69520852000A6157
:100F3000002803D1641CE4B2AC42E6D3014900228C
:100F40000A76DAE7E000002050C3000000200240EB
:100F500005480169090605D5044941600449416015
:100F600000207047012070470020024023016745A0
:100F7000AB89EFCD022807D10448817D491C8175DA
:100F80000349887D401C887570470000F4010020EB
:100F90002402002010B504494A69024202D0486187
:100FA000FFF7E8FF10BD000000040140F8B5002283
:100FB0008DE001249440A44623407DD04C68022C4F
:100FC00001D0122C0CD1D408A4002618356A54077D
:100FD000E40E0F27A740BD430F69A7402F43376298
:100FE000066855000324AC400F79A643BF07BF0F26
:100FF000AF40374307604E68012E05D0022E03D064
:10100000112E01D0122E0ED18668CF68A643AF40B4
:101010003743876047686646B7430E79F606F60F92
:1010200096403E434660C668A6438C68AC40344355
:10103000C4604C68E40049D5284CA56901263543B5
:10104000A561A469950834400094254CAD002F1982
:10105000BD689407240F0F26A640B5430926F6065F
:10106000B04201D100260FE01E4EB04201D1012650
:101070000AE01D4EB04201D1022605E01B4EB042EF
:1010800001D1032600E00526A6402E43BE60184D80
:101090002C684E689C43F60300D51C432C606C689A
:1010A0004E689C43B60300D51C436C60AC684E6828
:1010B0009C43F60202D500E008E01C43AC60EC68FB
:1010C0004E689C43B60200D51C43EC60521C0B6872
:1010D0001C46D44000D06CE7F8BD00000010024070
:1010E000000001400004004800080048000C0048CF
:1010F000000401400069084000D001207047002A28
:1011000001D081617047816270470000014800682A
:10111000704700000000002002480168491C01607F
:10112000704700000000002010B50648016810223A
:1011300011430160002000F007F800F017F80020CC
:1011400010BD00000020024010B5044600F0CEF8AB
:101150007D21C900FEF7C4FF00F0F4FA0022214609
:10116000501E00F029F8002010BD000008B50C4802
:101170008169012211438161806910400022009041
:101180001146501F00F018F800221146901E00F082
:1011900013F800221146501E00F00EF808BD0000A2
:1011A00000100240C106C90E0120884001490860B4
:1011B0007047000000E100E010B500F079FD10BDBF
:1011C000F8B5044644480E460068C007C00FB04258
:1011D0000AD241480168490849003143016000686A
:1011E000C007C00FB0425CD120783C4F800705D5C6
:1011F0007868F0218843A168084378602078C007A8
:101200003FD06068012813D03968022813D08907BD
:10121000002946DA79688908890001437960FFF777
:1012200075FF0546606801280DD0022817D024E01C
:1012300039688903ECE78901EAE7FFF767FF411B9B
:101240002748814217D878680007800F0128F4D119
:1012500017E0FFF75BFF411B214881420BD87868FC
:101260000007800F0228F4D10BE0FFF74FFF411B6E
:101270001B48814201D90320F8BD78680007800F20
:10128000F3D115480168C907C90FB1420BD90168EC
:1012900049084900314301600068C007C00FB042EF
:1012A00001D00120F8BD2078400706D578680721D5
:1012B00009028843E1680843786000F01DF8796806
:1012C000084A0906090F515CC84007490860002018
:1012D000FFF73AFF0020F8BD002002400010024056
:1012E000881300002E280008040000200148006830
:1012F000704700000400002010B513A00FC888B08C
:101300006C460FC414A00FC80FC4174B5A680C20AA
:1013100011460140154804290FD008290DD191022A
:10132000090F6C46645CD96A04AB0907090F595C64
:10133000D20304D5FEF7D4FE604308B010BD0C49BB
:1013400020464843F9E700000203040506070809A0
:101350000A0B0C0D0E0F10100102030405060708FE
:10136000090A0B0C0D0E0F100010024000127A003B
:1013700000093D00FEB504460078D04DC00746D0B8
:1013800068680007800F012807D068680007800F91
:10139000022809D16868C00306D52868800336D5BD
:1013A000606800287ED032E00121606809040128CD
:1013B0000AD08A00002801D005280FD02868884369
:1013C00028602868904301E0286808432860606826
:1013D000002810D0FFF79AFE064608E02868104360
:1013E0002860F1E7FFF792FE801B64286FD8286819
:1013F0008003F7D50BE0FFF789FE064604E0FFF710
:1014000085FE801B6428F1D828688003F7D42078F3
:101410000126800700283BDA68680007800F07D0A4
:1014200068680007800F022809D16868C00306D4E5
:101430002868800715D5E068012833D111E0E068FD
:101440000028286815D030432860FFF75FFE074664
:1014500004E0FFF75BFEC01B0228C7D8286880079E
:10146000F7D52868F82188432169C9000843286016
:101470000EE0400840002860FFF748FE074604E001
:10148000FFF744FEC01B0228B0D828688007F7D4B5
:101490002078000724D5E0690028686A10D030431E
:1014A000686200E007E1FFF731FE074604E0FFF75E
:1014B0002DFEC01B022899D8686A8007F7D50FE077
:1014C000400840006862FFF721FE074605E09DE006
:1014D000FFF71CFEC01B022888D8686A8007F7D473
:1014E000207804274007002860DA00200190E8698E
:1014F000C00008D4E969B8060143E961E96901401F
:101500000120009101906E480168C90511D401685D
:10151000821511430160FFF7F9FD009005E0FFF728
:10152000F5FD0099401A642870D865480068C00528
:10153000F5D5A06801280AD0002801D0052810D0D0
:10154000286A400840002862286AB84301E0286AF7
:1015500030432862A068002812D0FFF7D7FD009022
:101560000AE0286A38432862F1E7FFF7CFFD0099C7
:10157000411A5448814249D8286A8007F5D50DE0C0
:10158000FFF7C4FD009006E0FFF7C0FD0099411A87
:101590004C4881423AD8286A8007F5D4019800283F
:1015A00004D0E969012000078143E9612078C00681
:1015B00035D5606901280CD0401D686B23D03843B5
:1015C0006863686B400840006863FFF79FFD06464C
:1015D00022E0686B38436863686B30436863FFF7E9
:1015E00095FD064604E0FFF791FD801B02285BD8BD
:1015F000686B8007F7D5686BF8218843A169C9003B
:10160000084368630BE0B8436863F4E74CE0FFF716
:101610007DFD801B022847D8686B8007F7D4206ABD
:10162000002846D069680907890F022943D001279D
:101630003F060228286805D0B8432860FFF766FDFA
:10164000044633E0B8432860FFF760FD064604E037
:10165000FFF75CFD801B022826D828688001F7D49C
:10166000E86AE16A000900010843E862616AA06A69
:10167000084369683D221204914308436860286862
:1016800038432860FFF742FD044604E0FFF73EFDC3
:10169000001B022808D828688001F7D509E0FFF769
:1016A00035FD001B022801D90320FEBD28688001FA
:1016B000F5D40020FEBD0120FEBD00000010024058
:1016C00000700040881300000422044904280869BF
:1016D00002D09043086170471043FBE700E000E050
:1016E00000B5154800F09FFE1448418B491C41830A
:1016F00013480178491CC9B201708288521C82804B
:1017000000220A2906D102704178491C4170C18823
:10171000491CC18041780A2906D142708178491C50
:1017200081700189491C018181780A2903D1827065
:101730004189491C418100BD68020020F40100205C
:101740000C000020094910B5401E884201D9012033
:1017500010BD074C60610321081F00F0A9FA0020AA
:10176000A06107202061002010BD0000FFFFFF00E6
:1017700000E000E010B5FFF7B3FF10BD7047704701
:1017800070B5040005D025462035687E002802D0BB
:1017900006E0012070BD00202876204600F00AF8FF
:1017A00002206876211D206800F0F0FD0120687697
:1017B000002070BD08B50068094988420FD109486A
:1017C000C26981150A43C261C069002208400090C5
:1017D00011461320FFF7F0FC1320FFF7E3FC08BDD0
:1017E00000200040001002400222014620314A76CB
:1017F0000068026801231A4302604B76002070479C
:10180000704770B50446006801690025C94389071F
:10181000002915DBC168C943890711D4E91E01619C
:1018200001202076206880698007204602D0FFF7DB
:10183000E7FF04E000F096F8204600F094F82576E3
:1018400020680169C943490717D4C168C9434907DA
:1018500013D40421C94301610220207620688069E5
:101860008005800F204602D0FFF7CAFF04E000F099
:1018700079F8204600F077F8257620680169C94399
:10188000090716D4C168C943090712D40821C943FE
:101890000161042020762068C0698007204602D0BC
:1018A000FFF7AEFF04E000F05DF8204600F05BF8C3
:1018B000257620680169C943C90617D4C168C943A0
:1018C000C90613D41021C94301610820207620687D
:1018D000C0698005800F204602D0FFF791FF04E029
:1018E00000F040F8204600F03EF8257620680169B7
:1018F000C943C90708D1C168C943C90704D1891EB2
:101900000161204600F030F820680169C9430906EA
:1019100009D4C168C943090605D48021C9430161BE
:101920002046FFF72BFF20680169C943490609D407
:10193000C168C943490605D44021C9430161204615
:1019400000F013F820680169C943890609D4C16809
:10195000C943890605D42021C94301612046FFF708
:101960000EFF70BD704770477047704710B5054B4C
:10197000002801D0002200E0012202211846FFF7D2
:10198000BEFB10BD0014004810B5044620780300CB
:1019900000F06FFE1029092D0D3111351539193D53
:1019A0001D4121452549204600F074FB3CE02046BE
:1019B00000F048FC38E0204600F0D6FC34E0204639
:1019C00000F08CFB30E0204600F068FC2CE0204664
:1019D00000F00EFB28E0204600F0A8FA24E02046A4
:1019E00000F0AEFA20E0204600F036FB1CE0204676
:1019F00000F010FC18E0204600F098FC14E02046AF
:101A000000F05AFB10E0204600F02CFC0CE02046D1
:101A100000F0E2FA08E0204600F06AFA04E020460E
:101A200000F048FA00E000BF00BF10BD00B502485A
:101A300000F06FF800BD00002402002010B5164829
:101A40001449016028218180FF21E13101810021B9
:101A50006222C180D243428163228281C1811922E4
:101A60000282FF222D324282818281750B4A0283DB
:101A7000417781770222C27702462032117051707D
:101A80008184C184052111720549C1620020FFF7DC
:101A90006DFF10BD3789813E24020020FC08000044
:101AA0006D1900080648074A817D53782030994215
:101AB00002D100214170704701234370517070477B
:101AC000240200200800002010B5024800F004F8AD
:101AD00010BD00002402002070B504461420205ED2
:101AE000FEF7E1FB06460420205EFEF7DCFB054620
:101AF0000E20205EFEF7D7FB2168FEF797FB2946F4
:101B0000FEF73BFB3146FEF789FBFEF7EBFB20823D
:101B100070BD018A428A891A09B2C184C27F002A33
:101B200012D00323012A13D0022A15D0032A0AD186
:101B30002822125C914201DD0223C3775242914276
:101B400001DA0021C17770470029FCDB0121F9E7A8
:101B50000029F8DAC37770470029FBDD70470000E1
:101B60003EB513491348002412C004600346012106
:101B700004220833446016C344618461C461446232
:101B80008462C1620838FEF7E3FF002801D0FEF747
:101B900076FD012000030190000402900094694644
:101BA0000448FEF749FF002801D0FEF768FD3EBD5E
:101BB0000024014000010020F0B52E4887B04269A2
:101BC000012189050A43426142690A40059242693E
:101BD00049110A43426142690A400592426949003B
:101BE0000A4342614069244E0840059000220321C7
:101BF0003046FFF784FA0927D321FF060022C900E7
:101C00003846FFF77CFA032001240025694631C1DC
:101C1000694630460395FFF7C9F96420009069468C
:101C2000019502943846FFF7C1F99820694631C101
:101C3000694638460395FFF7B9F9022000900F482E
:101C40000190694602940E48FFF7B0F90320400264
:101C5000009001946946039502943846FFF7A6F96F
:101C6000002211460520FFF7A7FA0520FFF79AFA90
:101C700007B0F0BD00100240001400480000111031
:101C80000004004810B509480749016000220721F7
:101C90008260416031210261C160FFF771FD00285F
:101CA00001D0FEF7ECFC10BD002000404C010020EC
:101CB0008307FF22DB0E9A408907090E994000280E
:101CC0000BDA0007000F0838830808489B00181833
:101CD000C36993430B43C3617047830804489B0067
:101CE0001818036893430B430360704700ED00E04E
:101CF00000E400E00848074901600849416000210C
:101D00000172012242728272C172017341730174C5
:101D100070470000D927000888010020E727000845
:101D200010B5024800F004F810BD00008801002042
:101D300070B5044600688047E07260688047207391
:101D4000E17A627A914202D1A27A904218D0227C42
:101D5000002601250223002A06D0012A11D0022ADA
:101D60001ED0032A3FD12BE02672002902D0627BCD
:101D70001A436273627B024362736172A0722574BC
:101D800070BD627B9206120E6273002901D01A4365
:101D90006273D2B2024362736172A072237470BD27
:101DA000627B9206120E6273002901D01A4362739D
:101DB000D2B2024362736172A0720320207470BDBC
:101DC000607B2D280CD006DC07280BD00B2807D011
:101DD0001E2808D106E0342802D0382803D101E0BB
:101DE000257200E023722674667370BD10B5FFF78C
:101DF00093F9FFF7BFFC10BD10B590B01220009012
:101E0000012003900590102004900024069008946F
:101E10006846FFF7AFFA002800D0FEE707200C90D5
:101E20000D940E9400210F940CA8FFF7C9F9002817
:101E300000D0FEE7FFF75AFA7D21C900FEF750F9FE
:101E4000FFF780FC0420FFF73FFC00221146501EE4
:101E5000FFF7B2F910B010BD134801680122114319
:101E600001604168114A114041600168104A114007
:101E700001600168012292049143016041683F22A0
:101E8000120491434160C16A09090901C162016BF1
:101E9000FF22143291430163416B490849004163B9
:101EA0000021816070470000001002400CB8FF085C
:101EB000FFFFF6FE10B504460120E16808732069B3
:101EC0001430E16808610020E16888760120E1684B
:101ED00008770020E168C8762069C16A0020884739
:101EE0000020024908800F20207010BD140000203F
:101EF00010B504462069C16A002088470020E168C7
:101F000008730848E16848610120E168887600208C
:101F1000E1680877E168C8760D202070002002494A
:101F2000088010BD582800081400002003490988C3
:101F30000F2901DD0E210170704700001400002000
:101F400010B504466068007A012815D100202149A7
:101F50000880616808722069808A401E00B2216989
:101F6000888214202169085E0A228A5E904203DA80
:101F700020694089216988826068007A022815D129
:101F8000002014490880616808722069808A401C1A
:101F900000B22169888214202169085E0C228A5EC1
:101FA000904203DD2069808921698882A068807958
:101FB000012805D1FEF7ACFCFEF762FC062020707C
:101FC00004480088322803DDFEF75AFC0620207002
:101FD00010BD0000140000200021C2681173C26807
:101FE00091760121C26811770B21017070470000C2
:101FF00010B504462069407F002803D01448E168EA
:10200000486102E01348E16848612069807F002848
:102010000ED00120E168C8762069C16A0120884796
:1020200010212069415E5A2911DD062020700EE042
:102030000020E168C8762069C16A002088470E2028
:102040002169085E098B884201DA0620207010BDE4
:102050004C2800085028000810B504462069C16AC1
:10206000002088470020E16808730848E16848615B
:102070000020E1688876E1680877E168C876012089
:10208000207000200249088010BD00003E28000892
:102090001400002007490988032909DD016920315E
:1020A0004978002902D00421017001E00221017069
:1020B0007047000014000020002102695177026976
:1020C0009177026911770121C26811730021C268FA
:1020D0009176C268117707210170704770B5044688
:1020E0002069C07F032804D120691230E1680861AB
:1020F00003E020691030E16808610E202169085E64
:10210000098B884216DA10202169085E12228A5E45
:10211000904207DA2069C16A012088470120E168FE
:10212000C8760CE02069C16A002088470020E16879
:10213000C87604E00120216948770A2020702069D0
:10214000007F002811D12069C07F002809D12069B3
:10215000008A2169488401202169087700202169CB
:1021600048830020E168087735E02069C07F0028B7
:1021700003D00020216908772DE022202169085E24
:1021800010228A5E801A642803DD0120E168087746
:1021900002E00020E168087710212069415E5A2999
:1021A00019DA2069408B1949884214DD22212269FD
:1021B000515E1023D35EC81AFEF780F84900490823
:1021C00005460022124BFEF7C5F804D20A20207003
:1021D0000120216988776068007A002801D00820F2
:1021E0002070A0684089FF212D31884205DD2069DB
:1021F000C07F032801D10C20207020692030007896
:10220000002801D01020207070BD000010270000B1
:102210000000104010B504462069C16A00208847BC
:102220000020E16808730648E16848610020E16821
:102230008876E1680877E168C8760320207010BDD1
:1022400054280008016920314978002901D004216F
:1022500001707047016920314978002901D10221BC
:102260000170704710B5044600200B4908802069B2
:10227000C16A002088470120E16808732069123094
:10228000E16808610020E1688876E1680877E16824
:10229000C8760920207010BD1400002010B5044637
:1022A0006068007A012814D10020616808722069F2
:1022B000408A401E00B221694882062221698A5E56
:1022C000904203DC2069C0882169488200201649B9
:1022D00008806068007A022814D1002061680872C2
:1022E0002069408A401C00B2216948820822216985
:1022F0008A5E904203DD20690089216948820020BE
:1023000009490880A0688079012803D1FEF700FB05
:102310000620207004480088192803DDFEF7F8FA2B
:102320000620207010BD00001400002010B50446E7
:1023300000200C4908802069C16A002088470120DC
:10234000E168087320691230E16808610020E168E3
:1023500088760120E16808770020E168C8760520CA
:10236000207010BD1400002003490988142901DDE4
:1023700006210170704700001400002010B50248CB
:10238000FFF73FFA10BD00004C01002070B5026855
:10239000164C174EA04201D0B04204D1134670250E
:1023A0004A68AB431A43134B134DA04208D0B042C6
:1023B00006D0124EB04203D0984201D0A84204D1B8
:1023C00003263602B243CE68324302608A68C26294
:1023D0000A688262A04203D0984201D0A84201D18B
:1023E000096901630121416170BD0000002C0140B9
:1023F000000400400044014000480140002000402B
:1024000030B503684360002309E0446825788D42B5
:1024100000D16270446810345B1CDBB24460047A03
:102420009C42F2D830BD10B5016841600021012303
:1024300013E042685478012C0AD1D468012C03D8E7
:10244000937042685468D4604268D468641ED46053
:1024500042681032491CC9B24260027A8A42E8D806
:1024600010BD00000348024901600221017270475B
:10247000BC0000207402002070B5044600680025EE
:102480002E4660600EE060688178012905D1867073
:1024900060688068002800D08047606810306D1C3C
:1024A000EDB26060207AA842EDD870BD03480249C1
:1024B00001600A21017270471C00002068020020A0
:1024C00010B50248FFF7D8FF10BD000068020020D9
:1024D00010B5094807490160084941600849816011
:1024E0000021203041708170112248212038FEF7F0
:1024F000E2F810BDF5270008AC010020052800080F
:102500001528000810B5024800F00CF810BD0000B6
:10251000AC01002010B5024800F004F810BD000026
:10252000D0010020F8B50446007F2546203500285C
:1025300002D06878002809D0207B012810D060697B
:102540000178A1774178E17780783CE03C494A1CEA
:102550000978A177501C60611178E177507832E0FA
:1025600026690020364F305E3F1D002818DB0A2107
:10257000FDF7CCFD785CA0770020305E0A21FDF7E6
:10258000C5FD0A21FDF7C2FD785CE0770020305ED2
:102590006421FDF7BBFD0A21FDF7B8FD785C12E070
:1025A000FDF78CFE49004908FDF7B6FE80B2208396
:1025B0000A21FDF795FD795CA1770A21FDF790FDD1
:1025C000785CE07740202870607F0321401CC0B217
:1025D00060770646FDF784FD0023002903D1687863
:1025E000002808D06B70E07E8022002806D0A07FF3
:1025F0001043A07713E001206870F4E7A07E002864
:102600000DD0F00705D1A878411CA970022800D987
:10261000AB70A97820461E300B5C13430B54A27F8D
:1026200068212046FEF747F8E27F6A212046FEF740
:1026300042F82A786C212046FEF73DF8F8BD0000EC
:102640003E2800082021020C01D010211046020A69
:1026500001D010460839020901D01046091F82082E
:1026600001D01046891E420801D0881E7047081A02
:10267000704730B47446641E2578641CAB4200D2A7
:102680001D46635D5B00E31830BC184702E008C8D4
:10269000121F08C1002AFAD170477047002001E0DC
:1026A00001C1121F002AFBD17047000010B502487B
:1026B000FFF76AF910BD00005402002000B502487F
:1026C000FFF7C8FD00BD00005402002010B5002037
:1026D00021490870214888602148486021480861E4
:1026E0002148C860FFF706FB012203211F48FFF7BE
:1026F00087FEFDF7ADFF012202211C48FFF780FE97
:10270000FFF7E6FE012200211848FFF779FEFDF7EA
:102710005BFFFFF793F9FEF7B3F801220921134895
:10272000FFF76EFE01220A211048FFF769FE012221
:102730000B210E48FFF764FE01220C210B48FFF726
:102740005FFE01220D210948FFF75AFE01220E21EA
:102750000648FFF755FE10BD540200209C010020E2
:102760008801002024020020AC0100206802002023
:10277000FEF7DAFCFFF740FBFFF71EFAFFF7F0F970
:10278000FFF780FA0B48FEF70DF90B48FFF72CF81E
:102790000A210848FEF7B6FAFFF788FEFFF762FE47
:1027A000FFF794FF0548FFF73EFE0448FFF764FE7D
:1027B000F8E70000000100204C0100207402002016
:1027C00010B509200421C006FEF794FC002801D0B2
:1027D000002010BD012010BD10B509202021C00629
:1027E000FEF788FC10BD10B509204021C006FEF799
:1027F00081FC10BD024610B509201021C006FEF76D
:102800007EFC10BD024610B509200821C006FEF767
:1028100076FC10BD10B50924E406012208212046EB
:10282000FEF76DFC08212046FEF764FC10BD000099
:102830000000000000000102030406070809000070
:1028400000003F065B4F666D7D077F6F79406D002E
:102850007940760071713F003877390058000000E8
:102860002C0100002C010000882800080000002036
:10287000DC0000008C26000864290008DC00002031
:10288000CC0600009C2600080000000000127A0020
:102890000000000000000000000000000000000038
:1028A0000000010000000000640000000525000891
:1028B0000000000001000000640000001525000871
:1028C00000000000020000000A000000E10500080E
:1028D000000000000300000001000000211D0008AE
:1028E000000000000E000000640000000D08000859
:1028F0000000000009000000010000006508000859
:10290000000000000A00000032000000A51A0008C4
:10291000000000000B00000001000000C91A0008C0
:10292000000000000C000000320000002D1A00081A
:10293000000000000D00000064000000BD2600083B
:10294000000000000101000001000000AD260008A9
:10295000000000000201000001000000C124000886
:042960000000000073
:04000005080000B13E
:00000001FF
