:020000040800F2
:10000000F8060020C5000008CD000008CF00000859
:1000100000000000000000000000000000000000E0
:10002000000000000000000000000000D1000008F7
:100030000000000000000000D3000008C5210008F7
:10004000D700000800000000D7000008D700000813
:10005000D700000805060008D7000008D7000008F0
:1000600000000000D7000008D7000008D7000008F3
:10007000D7000008D7000008D700000800000000E3
:10008000D700000800000000000000008D220008DA
:1000900000000000D7000008D7000008D7000008C3
:1000A00000000000D700000800000000D700000892
:1000B0000348854600F0F0F900480047692500082C
:1000C000F80600200448804704480047FEE7FEE7A2
:1000D000FEE7FEE7FEE7FEE731220008B100000878
:1000E00030B50B46014600202022012409E00D46D0
:1000F000D5409D4205D31D469540491B2546954058
:1001000040191546521E002DF1DC30BD70B500249B
:100110002546002801DA01244042002901DA0125A0
:100120004942FFF7DDFFAC4200D04042002C00D036
:10013000494270BD10B5202A04DB0846203AD04061
:10014000002110BD0B46D340D0402024A21A91407C
:100150000843194610BD03460B439B0703D009E033
:1001600008C9121F08C0042AFAD203E00B780370F2
:10017000401C491C521EF9D27047F8B502464A404D
:10018000D40F42004B0052085B089A4202D202464A
:10019000084611464A0023D0C30D4A00DDB2120EB4
:1001A000AD1A202D35DA49020126490AF6058A19C9
:1001B000002C00D0524220214F1B1146B9402A4149
:1001C0001018C20D9A4221D0002C17D0012D08DC46
:1001D000DA05801AD20F8019D207DBB200F0C4F81A
:1001E000F8BDDA05801A012340001B06C0188018EC
:1001F0005A428018CA0F1043490007E04908C20755
:100200001143DA05801A80194008801800F0A4F81C
:10021000F8BD61000122511A001BF7E70122D20745
:100220005140AAE70122D2075040A6E7024670B526
:100230004A40D30FDB0740002DD04A002AD0010EE0
:10024000140E000212020919400A520A8418E5012C
:1002500004465443000A120A2E045043A4194219BA
:10026000200CC543AA18120C0125AD03521C5219CB
:1002700012047F39240400D0521C104301D44000E2
:10028000491EC2B20C06C0092018401C4008802A32
:1002900002D003E0002070BD40084000002900DAD1
:1002A0000020184370BDC217C10F504010B5401850
:1002B000CA079623002100F057F810BD10B50022A0
:1002C0009623114600F050F810BD00000EB5C2177D
:1002D000C10F5040CA0740180021054B02930192FC
:1002E00000910A460B4600F085F803B000BD0000FF
:1002F00033040000410040020122400AD205090EE9
:1003000080187F2901DA00207047962903DC9622A5
:10031000511AC84070479639884070474A0009030F
:100320000123090B1B051943094B10B5520D9A42C5
:1003300001DA002010BD064B34339A4203DC9A1ACE
:10034000FFF7F8FE10BD03495118884010BD0000AA
:10035000FF030000CDFBFFFF002904DA401C490029
:1003600001D140084000704770B40024050C05D14D
:100370001024000402D1002921D01124050E01D13E
:1003800000020834050F01D10001241D850F01D1A1
:100390008000A41C002801DB4000641C002908D058
:1003A00020252E1B0D46F540A14000D001212943F8
:1003B000084301061B1B000ADB1D02D5002070BC90
:1003C0007047DB05181880180029F8DA401C49002E
:1003D000F5D170BC40084000704710B5002B08DA1A
:1003E0000024401C614192185B411A4301D140082E
:1003F000400010BDF0B51FB482B005460C0003D01C
:10040000084602F033F802E002F030F820300246ED
:1004100000902146284600F051F8049B059A0446B6
:100420000F4618431143084314D0184610431BD0FD
:10043000009840210A1A18460599FFF77BFE0546E9
:100440000E46009A0599049800F038F8084305D044
:10045000012004E02046394607B0F0BD0020C11756
:1004600005430E432C43374300990E986305401A09
:100470007905E40A00220C43FD0A0A3002D5002067
:100480000146E9E70105101969410C9C0D9D001911
:100490006941FFF7A2FFDFE7064C0125064E05E0A4
:1004A000E36807CC2B430C3C98471034B442F7D395
:1004B000FFF702FE5C2600087C26000810B5202A03
:1004C00004DB0146203A9140002010BD91402023DA
:1004D0009C1A0346E3401943904010BDF8B504460A
:1004E00000200090206881688907890F012905D1C3
:1004F0000168C9072CD1C168090429D48168154A4B
:10050000102611400125002915D1816829438160F9
:10051000124811490068FFF7E3FD00E0401E00901B
:100520000028FBD100F06EFD07460CE000F06AFDEC
:10053000C01B022807D9606C30436064A06C28435C
:10054000A0640120F8BD20680068C043C007EDD159
:100550000020F8BD1700008040420F00040000207A
:1005600010B5024800F004F810BD0000A8020020F9
:1005700010B50446006880476071E189491CE1813B
:100580002179814201D1A07100E02071207A0028F8
:1005900002D0A089401CA081607A002818D01148A0
:1005A000002203780121002BA37903D0002B05D072
:1005B000027003E0002B01D10170E171A37A002BDE
:1005C00006D04378002B04D0E179002900D0427096
:1005D00010BDE279002AFBD14170207C401C2074C0
:1005E00010BD0000090000200548044901600021F9
:1005F0008171C1710122027241727047A925000800
:10060000A802002010B5022000F040FC10BDFEE75B
:1006100010B50446016801208847616801208847B9
:1006200061680020884721680020884710BD10B508
:100630000446016801208847616800208847616896
:100640000120884710BD70B516460C460546FFF7D9
:10065000DFFF2146284600F008F83146284600F022
:1006600004F82846FFF7E3FF70BD70B50E46044658
:1006700000256168300601D5012000E00020884790
:100680002168012088477006060E216800208847EF
:100690006D1CEDB2082DECD36168012088472168FC
:1006A0000120884721680020884770BD0649002046
:1006B000C8610648016904221143016101694022B1
:1006C0001143016170470000B80000200020024083
:1006D000064A0021D16106490A6902231A430A61C8
:1006E000486108694022104308617047B800002043
:1006F0000020024010B5054B0022DA61044A13695C
:10070000012423431361018010BD0000B8000020C4
:10071000002002400949C868C206094803D5C269D9
:1007200002231A43C261CA68520703D5C269012372
:100730001A43C2611420C8607047000000200240C4
:10074000B800002070B5044600F05CFC0546104E71
:100750000AE0601C08D0002C04D000F053FC401BC1
:10076000A04201D9032070BDF068C007F1D1F06844
:10077000800601D52020F060F068C00602D4F06841
:10078000400703D5FFF7C6FF012070BD002070BDF4
:100790000020024010B500F077F8034901F09AFEFE
:1007A0000249088310BD00006001002060020020A3
:1007B000F0B587B01B4F00246D46062632463946F9
:1007C00028460594FFF7C7FC68460078582820D0D3
:1007D00000F040FB0120049005A90397029402A8B1
:1007E00000F0A0FA324610496846FFF7B4FC2A88A8
:1007F0000023E1190120AD1C00F0EEFAA41CE4B2C4
:10080000B442F4D300F0DEFA324639466846FFF7C8
:10081000A2FC694605484988C18369468988818365
:1008200007B0F0BD003C000856260008600200201A
:10083000F0B587B0002458206A460594107310481C
:1008400003AD818B1182C08B0626D08100F002FBA4
:1008500001200C4F029005A901970094684600F012
:1008600061FA2A880023E1190120AD1C00F0B4FAD6
:10087000A41CA4B2B442F4D300F0A4FA07B0F0BDB3
:1008800060020020003C000810B5064800F01CFA89
:100890000A21044800F0B8F9024800F0D7F880B205
:1008A00010BD0000D8000020F8B5054604464035CC
:1008B00028780026012808D0012028702068816847
:1008C0008907890F012908D101E00220F8BD0168DC
:1008D000C9072AD1C168090427D4616CFF220132FB
:1008E0009143022211436164816892071143816040
:1008F00000F088FB07460EE000F084FBC01B0228D6
:1009000009D9606C022188431021084360640020EB
:1009100028700120F8BD206880680028ECDB606C3E
:1009200080088000401C606404E0606C2021084363
:1009300060640126002028703046F8BDF8B5002517
:100940000446403400952278012A39D001232370CF
:1009500002689668760767D4384F4E68BE424DD01D
:10096000966A0F78BB401E4396620123826B1B0779
:100970009A421FD0012A1DD0022A1BD0032A19D067
:10098000042A17D0052A15D0062A13D0072A11D019
:1009900002688B6856697607760FB3420AD05369AE
:1009A000DB08DB005361006842690B7A5B075B0F71
:1009B0001A4342610868102804D0112802D038E098
:1009C0000220F8BD1E4B9A68102807D00120800530
:1009D00002439A600868102803D02AE00120C0056D
:1009E000F6E7194817490068FFF77AFB0A214843E0
:1009F00000E0401E00900028FBD11AE0906A0E78BB
:100A0000B340984390620868102801D0112810D193
:100A10000B498A68102804D00120800582438A602F
:100A200007E00120C005F9E7416C20221143416431
:100A30000125002020702846F8BD000001100000AC
:100A40000027014040420F00040000200068006CB5
:100A500070470000F8B500250446002803D0606CFC
:100A6000002802D008E00120F8BD0020A064402149
:100A70000855204600F0A8F8606C1022104270D192
:100A80002068816849076CD4616C13019943022383
:100A90001943616481688907890F012905D10168BB
:100AA000C9070FD1C16809040CD4C1681826B14325
:100AB000A6683143C16020680169666889008908B9
:100AC000314301612068C1683D4E3140C160A06979
:100AD0008103E069C0030143206A46033143666B2A
:100AE000012E02D00126360300E000263143E668DD
:100AF00031432669022E08D000263143266B76004A
:100B00003143666A012E02D00BE00426F5E7002887
:100B100028D0606C202630436064A06C01263043EE
:100B2000A064A06A0646FF3EC23E02D0E66A304399
:100B300001432068C6680E43C6600126A06B3607D5
:100B4000B04213D0012811D002280FD003280DD0B5
:100B500004280BD0052809D0062807D0072805D07F
:100B600010E028E0012000040143DAE7206846692C
:100B7000F608F600466120684669278F7F077F0FD9
:100B80003E4346612068C0680E4E3040884207D11F
:100B90000020A064606C80088000401C606408E055
:100BA000606C984310436064A06C01210843A0640A
:100BB00001252846F8BD606C10436064F8E700002A
:100BC0001902FEFFE7FF3F8300B500680C4987B0BC
:100BD000884212D10B48826941150A4382618069BB
:100BE0000840059002200090032001900020029010
:100BF00009206946C00600F055F907B000BD0000A5
:100C00000024014000100240F8B504464069274620
:100C100040370D4608280BD02068C068C00709D0AF
:100C2000606C202108436064002038700120F8BD0A
:100C3000082600E00C2600F0E5F9009011E0681CA1
:100C40000FD0002D05D000F0DDF90099401AA84220
:100C500007D9606C042108436064002038700320C9
:100C6000F8BD206800683042E9D0606C012149027B
:100C7000084360642068C1680C220905890F0029B7
:100C80001AD1216A002917D10168090714D5816892
:100C900001234907002908DB416891434160606CEA
:100CA000190288431843606406E0606C2021084301
:100CB0006064A06C1843A064A069002801D120687A
:100CC00002600020F8BD000070B5044621680020D5
:100CD0008968490721D425464035297801291CD047
:100CE00001212970E169012904D02046FFF7F6FBB4
:100CF000002811D1616C0A4A1140FF2201321143D0
:100D000061640021A164297022681C21116021689E
:100D10008A6804231A438A6070BD022070BD0000F7
:100D2000FEF1FFFFF8B5054623480F46017E012678
:100D300001290BD0012101762868204C012807D019
:100D40002046FFF7FFFC002813D030E00220F8BD5A
:100D50002046FFF7F7FC002829D1FFF7A7FC204623
:100D6000FFF7F0FC06461648016904229143016131
:100D70001DE00020C04338606C6812E02046FFF799
:100D8000A7FC0E48FFF7DEFC06460D48016902226B
:100D900091430161002E01D03C6008E001208002F7
:100DA0002418A868696880024018A042E6D8024862
:100DB000002101763046F8BDB800002050C3000085
:100DC0000020024003480169802211430161002094
:100DD0007047000000200240F0B51FB405461A48D5
:100DE0000024017E16461F46012907D00121017605
:100DF0001648FFF7A7FC002803D021E0022005B029
:100E0000F0BD012D1AD0022D18D0042516E02201C4
:100E100030463946FFF78EF981B20198620010180A
:100E2000FFF768FC0948FFF78DFC09490A69520879
:100E300052000A61002803D1641CE4B2AC42E6D33C
:100E4000014900220A76DAE7B800002050C300000A
:100E50000020024005480169090605D504494160A2
:100E60000449416000207047012070470020024083
:100E700023016745AB89EFCD022803D10248817970
:100E8000491C8171704700008002002010B50449A0
:100E90004A69024202D04861FFF7EEFF10BD000030
:100EA00000040140F8B500228DE001249440A446DE
:100EB00023407DD04C68022C01D0122C0CD1D408D8
:100EC000A4002618356A5407E40E0F27A740BD4337
:100ED0000F69A7402F433762066855000324AC40D2
:100EE0000F79A643BF07BF0FAF40374307604E6877
:100EF000012E05D0022E03D0112E01D0122E0ED1BC
:100F00008668CF68A643AF40374387604768664628
:100F1000B7430E79F606F60F96403E434660C66824
:100F2000A6438C68AC403443C4604C68E40049D5A7
:100F3000284CA56901263543A561A469950834406C
:100F40000094254CAD002F19BD689407240F0F267F
:100F5000A640B5430926F606B04201D100260FE0AF
:100F60001E4EB04201D101260AE01D4EB04201D111
:100F7000022605E01B4EB04201D1032600E0052603
:100F8000A6402E43BE60184D2C684E689C43F60365
:100F900000D51C432C606C684E689C43B60300D59A
:100FA0001C436C60AC684E689C43F60202D500E0BE
:100FB00008E01C43AC60EC684E689C43B60200D568
:100FC0001C43EC60521C0B681C46D44000D06CE7FC
:100FD000F8BD00000010024000000140000400487D
:100FE00000080048000C0048000401400069084067
:100FF00000D001207047002A01D0816170478162D2
:1010000070470000014800687047000000000020A1
:1010100002480168491C0160704700000000002080
:1010200010B506480168102211430160002000F04D
:1010300007F800F017F8002010BD00000020024063
:1010400010B5044600F0C0F87D21C900FFF748F84C
:1010500000F004FB00222146501E00F029F8002079
:1010600010BD000008B50C4881690122114381615F
:1010700080691040002200901146501F00F018F8BF
:1010800000221146901E00F013F800221146501E57
:1010900000F00EF808BD000000100240C106C90EA5
:1010A00001208840014908607047000000E100E02D
:1010B00010B500F067FD10BDF8B504463F480E4678
:1010C0000068C007C00FB0420AD23C480168490816
:1010D0004900314301600068C007C00FB0425CD1D5
:1010E0002078374F800705D57868F0218843A168BC
:1010F000084378602078C0073FD06068012813D08B
:101100003968022813D08907002946DA79688908E6
:10111000890001437960FFF775FF05466068012883
:101120000DD0022817D024E039688903ECE7890143
:10113000EAE7FFF767FF411B2248814217D878682A
:101140000007800F0128F4D117E0FFF75BFF411B78
:101150001C4881420BD878680007800F0228F4D120
:101160000BE0FFF74FFF411B1648814201D90320D6
:10117000F8BD78680007800FF3D110480168C907EF
:10118000C90FB1420BD901684908490031430160D8
:101190000068C007C00FB04201D00120F8BD207820
:1011A000400706D57868072109028843E1680843AB
:1011B00078600020FFF744FF0020F8BD00200240C7
:1011C000001002408813000010B500F011F8054926
:1011D0004968054A0906090F515CC840034908607F
:1011E00010BD000000100240282600080400002066
:1011F00010B513A00FC888B06C460FC414A00FC858
:101200000FC4174B5A680C20114601401548042999
:101210000FD008290DD19102090F6C46645CD96A80
:1012200004AB0907090F595CD20304D5FEF758FF38
:10123000604308B010BD0C4920464843F9E7000060
:1012400002030405060708090A0B0C0D0E0F101007
:101250000102030405060708090A0B0C0D0E0F1006
:101260000010024000127A0000093D00F8B5044663
:101270000078E04DC0075FD068680007800F012844
:1012800007D068680007800F022809D16868C0038A
:1012900006D5286880034FD5606800287ED04BE0D3
:1012A000286801263604B04328602868B1008843C6
:1012B0002860FFF7A7FE074604E0FFF7A3FEC01B68
:1012C00064286CD828688003F7D4606801280CD0A3
:1012D000002801D005280AD029682846B143296092
:1012E000296801229204914309E0284605E0296813
:1012F00028460122920411432960016831430160AC
:10130000606800280CD0FFF77DFE064604E0FFF77A
:1013100079FE801B6428D4D828688003F7D50BE0B9
:10132000FFF770FE064604E0FFF76CFE801B6428A2
:10133000C7D828688003F7D42078012680070028C2
:101340003DDA68680007800F07D068680007800FE3
:10135000022809D16868C00306D42868800715D51B
:10136000E06801281AD111E0E0680028286817D049
:1013700030432860FFF746FE074604E0FFF742FED1
:10138000C01B02289DD828688007F7D52868F82157
:1013900088432169C9000843286010E027E1BCE0C8
:1013A000400840002860FFF72DFE074604E0FFF7E5
:1013B00029FEC01B022884D828688007F7D420782B
:1013C000000721D5206A0028686A0ED03043686281
:1013D000FFF718FE074604E0FFF714FEC01B0228C3
:1013E00099D8686A8007F7D50EE040084000686227
:1013F000FFF708FE074604E0FFF704FEC01B0228C3
:1014000089D8686A8007F7D42078400766D5E869EC
:10141000012109070843E861E8690840009076481F
:101420000168821511430160FFF7ECFD074604E0F7
:10143000FFF7E8FDC01B64286FD86F480068C0053F
:10144000F6D5286A400840002862296A04208143B2
:101450002962FFF7D7FD074605E0FFF7D3FDC11B63
:101460006648814259D8286A8007F6D4A0680128C6
:1014700012D0002801D0052810D0296A4908490057
:1014800029622A6A04218A432A62A068002818D0A7
:10149000FFF7B8FD074610E0284604E0296A284611
:1014A000042211432962016A31430162EDE7FFF72B
:1014B000A9FDC11B514881422FD8286A8007F6D563
:1014C0000CE0FFF79FFD074605E0FFF79BFDC11B02
:1014D0004A48814221D8286A8007F6D42078C0067D
:1014E00039D5606901280DD0401D27D0686B0421D3
:1014F00008436863686B400840006863FFF782FD3B
:10150000064625E0696B042001436963686B30433C
:101510006863FFF777FD064605E061E0FFF772FDBF
:10152000801B02285CD8686B8007F7D5686BF821B0
:101530008843A169C900084368630CE0696B042013
:1015400081436963F2E7FFF75DFD801B022847D8FE
:10155000686B8007F7D4606A002846D0696809077D
:10156000890F022943D001273F060228286805D0A9
:10157000B8432860FFF746FD044633E0B8432860CF
:10158000FFF740FD064604E0FFF73CFD801B022804
:1015900026D828688001F7D4E86A216B0009000189
:1015A0000843E862A16AE06A084369683D221204C0
:1015B000914308436860286838432860FFF722FD9C
:1015C000044604E0FFF71EFD001B022808D8286827
:1015D0008001F7D509E0FFF715FD001B022801D9AE
:1015E0000320F8BD28688001F5D40020F8BD012053
:1015F000F8BD000000100240007000408813000099
:10160000042204490428086902D090430861704705
:101610001043FBE700E000E000B500F089FF0E4951
:10162000012208790023401CC0B208710A700A2800
:1016300004D10B714879401C48714A7048790A28D6
:1016400004D14B718879401C88718A7088790A2886
:1016500001D18B71CA7000BD2C000020094910B562
:10166000401E884201D9012010BD074C6061032152
:10167000081F00F087FA0020A061072020610020E9
:1016800010BD0000FFFFFF0000E000E010B5FFF715
:10169000C3FF10BD7047704770B5040005D02546E4
:1016A0002035687E002802D006E0012070BD0020B1
:1016B0002876204600F00AF802206876211D20686E
:1016C00000F0ECFD01206876002070BD08B50068D0
:1016D000094988420FD10948C26981150A43C2618C
:1016E000C06900220840009011461320FFF7E0FC7B
:1016F0001320FFF7D3FC08BD00200040001002407B
:101700000222014620314A760068026801231A430A
:1017100002604B7600207047704770B50446006841
:1017200001690025C9438907002915DBC168C94340
:10173000890711D4E91E01610120207620688069A3
:101740008007204602D0FFF7E7FF04E000F096F89C
:10175000204600F094F8257620680169C9434907BE
:1017600017D4C168C943490713D40421C94301618F
:1017700002202076206880698005800F204602D0F4
:10178000FFF7CAFF04E000F079F8204600F077F890
:10179000257620680169C943090716D4C168C94381
:1017A000090712D40821C94301610420207620686A
:1017B000C0698007204602D0FFF7AEFF04E000F0CA
:1017C0005DF8204600F05BF8257620680169C94382
:1017D000C90617D4C168C943C90613D41021C94327
:1017E0000161082020762068C0698005800F2046AE
:1017F00002D0FFF791FF04E000F040F8204600F02F
:101800003EF8257620680169C943C90708D1C16837
:10181000C943C90704D1891E0161204600F030F890
:1018200020680169C943090609D4C168C94309068A
:1018300005D48021C94301612046FFF72BFF2068B2
:101840000169C943490609D4C168C943490605D499
:101850004021C9430161204600F013F82068016966
:10186000C943890609D4C168C943890605D4202122
:10187000C94301612046FFF70EFF70BD70477047F6
:10188000704770470278002A0BD000220270064A87
:101890005089401C80B25081884202D90120508179
:1018A00070470020704700002C00002010B5054B49
:1018B000002801D0002200E0012201211846FFF794
:1018C0009AFB10BD00140048F8B507460D4C1E20C9
:1018D000205EFEF7E8FC06460C20205EFEF7E3FCE7
:1018E00005463846FEF7EAFCA168FEF79FFC29464C
:1018F000FEF743FC3146FEF791FCFEF7FBFC80B29D
:10190000F8BD00006002002012480323418B808B49
:10191000081A01B20F482030C27B002A16D0012AD3
:101920000CD0022A0ED0032A07D1052901DD00229E
:10193000C2734A1D01DA0121C17370470029FCDB23
:101940000221F9E70029F8DAC37370470029FBDDAB
:1019500070470000600200200248418D491C41850B
:10196000704700006002002010B5FF211548E131EA
:101970004182002262210282C94381826321C182A5
:1019800011498160DB21C94381810283192141838F
:10199000028442840D4901850146828420314A73C4
:1019A0008A73CA730A730A744A748A740849416351
:1019B00008494164084981630849C1630020FFF771
:1019C00075FF10BD60020020A470BD3EFC08000041
:1019D000AD180008C918000895070008E1190008AB
:1019E0000648074A81791378994202D1002141744F
:1019F000704701234374117070470000800200207B
:101A00000800002010B5034C616C208B8847608370
:101A100010BD0000600200203EB51448124901606C
:101A2000002141608160C1608161C16101624162E8
:101A30000124C16204610422446342610163FFF72F
:101A400009F8002801D0FEF7E2FD01200003019013
:101A500000040290009469460448FEF76FFF0028D6
:101A600001D0FEF7D4FD3EBD00240140D800002087
:101A7000F0B52A4887B04269012189050A434261CD
:101A800042690A400592426949110A43426142692A
:101A90000A400592426949000A4342614069204F69
:101AA00008400590002201213846FFF7A4FA0326DA
:101AB0007602092000223146C006FFF79CFA012574
:101AC0000024009502946946384601950394FFF777
:101AD000E9F964206A4631C209206946C006FFF769
:101AE000E1F9022000900F480190694602940E48E7
:101AF000FFF7D8F9092002946946C00600960195BF
:101B00000394FFF7CFF9002211460520FFF7D0FA22
:101B10000520FFF7C3FA07B0F0BD00000010024037
:101B200000140048000011100004004810B50948D6
:101B30000749016000220721826041603121026172
:101B4000C160FFF7A9FD002801D0FEF760FD10BDC0
:101B50000020004024010020F8B50024084E27464C
:101B60000C2060438519A878012804D1A8680028B2
:101B700001D08047AF70641CE4B20A2CF0D3F8BDEA
:101B8000380000208307FF22DB0E9A408907090EE8
:101B9000994000280BDA0007000F0838830808482E
:101BA0009B001818C36993430B43C36170478308B4
:101BB00004489B001818036893430B430360704765
:101BC00000ED00E000E400E0064805490160064938
:101BD00041600121017200214172C1727047000011
:101BE000C1250008BC020020CF25000810B502481E
:101BF00000F004F810BD0000BC020020F8B5044657
:101C000000688047054660688047364EB1788D424F
:101C100002D1F178884217D07778012102223B0067
:101C200000F03BFC05041322314157000023E3720E
:101C30006372002D02D0337813433370327802433D
:101C40003270B570F0707170F8BD31788906090E88
:101C50003170002D01D011433170C9B20143317090
:101C6000B570F0707270F8BD31788906090E317068
:101C7000002D01D011433170C9B201433170B570EC
:101C8000F07003200DE031788906090E3170002DC7
:101C900001D011433170C9B201433170B570F07099
:101CA00004207070F8BD3078872818D008DC1E2812
:101CB00015D02D2810D04B280ED0782806D10EE054
:101CC000B42809D0D22807D0E12808D00020E0723B
:101CD000607200203070E4E7E1726172F9E7E2724D
:101CE000FBE700000B000020F8B5184C0026274643
:101CF000607B203F164D796B002813D00020884769
:101D00001448A8612E75EE74AE746E741820385E97
:101D1000398D884205DA10480221017001202875AA
:101D20006673F8BDA07B0028FBD001208847012006
:101D3000A8740A49A9611A21795E5A29F1DD064A77
:101D4000022111702875EE74A673F8BD8002002080
:101D5000C802002046260008240000204A26000869
:101D6000F8B51C480024417C0746203F1A4E1B4D05
:101D700000291DD032780121002A0FD02B7C142B92
:101D80000BD929756C74EC743346AC7402210C3396
:101D90001970C4732C74D0433070F8BD2C74FF20BC
:101DA000307029756C74E974AC74B88BE882F8BD36
:101DB00001210B48FFF766FD0028F8D0796B002061
:101DC000884734700748A8616C74EC742C75AC7447
:101DD0002C74F8BD8002002018000020C8020020EA
:101DE0002E0000204E26000810B5FFF7EDFE012161
:101DF000022000F08BFBFEF7F7FB0121084600F004
:101E000085FB00F085FA0121002000F07FFBFEF742
:101E1000CFFCFFF7A9FD0121042000F077FB012191
:101E2000052000F073FB0121062000F06FFB01216B
:101E3000072000F06BFB0121082000F067FB012167
:101E4000092000F063FB06490120087005480021C5
:101E500001754174C17481740349816110BD000032
:101E600024000020C802002038260008FEB5304CAF
:101E700030492079002501272F4E844600280AD0BA
:101E80000820205E2D4AF082D37A2D4A012B13D0F0
:101E9000022B1DD026E0C88964280CD9294803C824
:101EA0000090019168464088208137757574F774F9
:101EB000B574FF202071FEBD204BCD81DD72401E28
:101EC00003B223811420105E98420BDD208109E0CB
:101ED0001A4BCD81DD72401C03B223811620105EA7
:101EE0009842F3DB1348807901280ED17574B574DC
:101EF000F57437752089D0836046C0432071FEF7A2
:101F000097FC0B4902200C3108700A48FF21C08958
:101F1000F5318842CFD97574B574F5743775207969
:101F20000349C043207102200C310870FEBD00003F
:101F300018000020A8020020C8020020BC020020D7
:101F400060020020003C0008F8B55E4C1C222146CF
:101F50002039E37B1A208A5E085E5B4D032B12D08A
:101F6000E882584918232039CB5E098D00260127C5
:101F70008B420EDA53492039496B904205DA012031
:101F80008847AF740CE0EA82EBE7AE740020884724
:101F900006E04E48052101702E756E74EF7467736C
:101FA0004A480C3880780028E07B0CD0012848D1C2
:101FB000444820384685818B408B091A43480C38A9
:101FC000C18086703DE0012803D040480C388770FE
:101FD00037E03C492039488D0A2832D93B480C3833
:101FE00087701A208A8B085E3849121A13B20C398E
:101FF00006228A5ED11A02291FDA324B203B502872
:1020000011DA32490C39C878421CCA700C2818D928
:10201000CE7005200C310870596B00208847A773DB
:102020002E756E7407E0294A0C3AD078411CD170A5
:10203000012806D9D670EF7403E02448EE740C38FA
:10204000C6702348417A01290ED146721D482038B6
:10205000416B002088471D48042101702F756E7464
:10206000EE741C48AE74C68118480C3840780028BD
:102070001848817906D0012903D114490C394E70D2
:102080008681F8BD012918D11248FF2180892D31A0
:102090008842F6D9E07B0328F3D10A482038416B07
:1020A000002088472E750C48A8616F74EE740748AD
:1020B000AE74062101700748C68104480C38477089
:1020C000F8BD000080020020C8020020240000208B
:1020D000BC020020A802002052260008F8B51E4AC3
:1020E0001C201E4D105E1E4BE882D97A1D4E002426
:1020F000012902D002290BD013E0401EF48101B265
:10210000DC7291831020105E81420ADC908308E02B
:10211000401CF48101B2DC7291831220105E814276
:10212000F4DCB0790127012808D1EC74AC746C742C
:102130002F75FEF77DFB0C4902200870F089FA2804
:1021400008D9FEF775FBEC74AC746C7406492F75F6
:1021500002200870F8BD000060020020C8020020C4
:10216000BC020020A80200202400002010B50E4868
:102170000078030000F091F90705080B070E111411
:102180000700FFF731FE10BDFFF7EAFD10BDFFF7B6
:10219000DBFE10BDFFF7A2FF10BDFFF7A5FD10BDD0
:1021A000FFF764FE10BD0000240000200348407CBF
:1021B000002802D1024901200870704780020020E7
:1021C0002400002010B5FEF723FFFFF75FFA10BDD3
:1021D00010B592B0122000900120039005901020BD
:1021E00004900024069009946846FFF73FF8002801
:1021F00000D0FEE707200D900E940F94002110945C
:102200000DA8FEF759FF002800D0FEE7FEF7DCFF1F
:102210007D21C900FDF764FFFFF720FA0420FFF7D6
:10222000EFF900221146501EFEF742FF12B010BD1A
:10223000134801680122114301604168114A1140AD
:1022400041600168104A1140016001680122920456
:102250009143016041683F22120491434160C16A89
:1022600009090901C162016BFF2214329143016324
:10227000416B4908490041630021816070470000BB
:10228000001002400CB8FF08FFFFF6FE10B5024830
:10229000FFF743FA10BD00002401002070B502686A
:1022A000164C174EA04201D0B04204D113467025FF
:1022B0004A68AB431A43134B134DA04208D0B042B7
:1022C00006D0124EB04203D0984201D0A84204D1A9
:1022D00003263602B243CE68324302608A68C26285
:1022E0000A688262A04203D0984201D0A84201D17C
:1022F000096901630121416170BD0000002C0140AA
:10230000000400400044014000480140002000401B
:1023100010B5074805490160064941600649C1609A
:1023200011224821FEF78FF910BD0000E9250008B1
:10233000C8020020FB2500080D260008F8B5484D0E
:10234000484CE87C6E46002802D06078002816D001
:10235000287D01281DD0A96900200A783254401C2C
:10236000C0B2491C0328F8D33D48A97C8023007CD7
:10237000002947D06A4611781943117052E03A4952
:1023800000200A783254401CC0B2491C0328F8D3FC
:10239000EAE71627EF5F002F38461BDB0A21FDF71F
:1023A000B5FE314A121D515C6A4611700A21FDF7D3
:1023B000ADFE2D486A46001D405C507038466421D1
:1023C000FDF7A4FE0A21FDF7A1FE27486A46001D7D
:1023D000405C15E0FDF77AFF49004908FDF79EFFD4
:1023E00080B20A21FDF77CFE1F4F6A463F1D795CD3
:1023F00011700A21FDF774FE785C6A465070402027
:102400009070B1E7697C00290CD0C10706D1A17892
:102410004A1CA270022901D90021A170A178725C26
:102420001A437254401CC0B228740321FDF758FEB1
:10243000002902D16078C043607068460278682144
:102440000748FEF700F9684642786A210448FEF71B
:10245000FAF8684682786C210148FEF7F4F8F8BD76
:10246000C802002010000020382600082021020C9D
:1024700001D010211046020A01D010460839020985
:1024800001D01046091F820801D01046891E42085B
:1024900001D0881E7047081A704730B47446641E15
:1024A0002578641CAB4200D21D46635D5B00E318D7
:1024B00030BC184702E008C8121F08C1002AFAD130
:1024C00070477047002001E001C1121F002AFBD1B4
:1024D0007047000030B50C4D00222B885C1CA4B264
:1024E0002C80802B02D26300C85201E0002028809B
:1024F00000204300CB5A401C9A18C0B28028F8D361
:102500005002000C30BD0000B000002030B5074C78
:1025100000220C235343E55C854201D11B195970FD
:10252000521CD2B20A2AF4D330BD00003800002079
:10253000F0B500200A4E0B4D01270C2141438919AB
:102540004A78012A07D14300EA5A541EEC5202D2BB
:102550008F708988E952401CC0B20A28EDD3F0BDC3
:1025600038000020E4020020FEF75AFDFFF730FE9D
:10257000FFF77EFAFFF750FAFFF7D8FA0848FEF7A0
:1025800093F90848FFF7BCF80A210548FEF73CFB21
:1025900000F024F8FFF7E0FAFFF7E8FDFAE70000A3
:1025A000D80000202401002010B509200421C00615
:1025B000FEF71CFD002801D0002010BD012010BD39
:1025C00010B509202021C006FEF710FD10BD10B582
:1025D00009204021C006FEF709FD10BD0149002079
:1025E0000870704724000020024610B50121092020
:1025F0004902C006FEF7FFFC10BD024610B50121DE
:1026000009208902C006FEF7F6FC10BD70B5012254
:1026100009259402ED0621462846FEF7ECFC2146EA
:102620002846FEF7E3FC70BD000000000102030431
:102630000102030406070809000000003F065B4F83
:10264000666D7D077F6F79406D007940760071710E
:102650003F0038773900580000002C017C26000824
:1026600000000020B4000000B42400083027000857
:10267000B400002044060000C4240008000000004C
:1026800000127A00000101000001010001000000B9
:102690000000000000010100000000000000000038
:1026A000000000000000000000000000000000002A
:1026B00000000100010000000A00000061050008A0
:1026C00000000000640000003D230008020000003C
:1026D00001000000ED1B00080400000001000000E4
:1026E000950700080500000032000000E11900080D
:1026F0000600000064000000051A00080900000040
:1027000032000000AD210008070000006400000056
:1027100059190008080000003200000009190008DB
:1027200000000000000000000000000000000000A9
:04000005080000B13E
:00000001FF
