:020000040800F2
:10000000E8060020C5000008CD000008CF00000869
:1000100000000000000000000000000000000000E0
:10002000000000000000000000000000D1000008F7
:100030000000000000000000D300000809210008B3
:10004000D700000800000000D7000008D700000813
:10005000D7000008B1060008D7000008D700000844
:1000600000000000D7000008D7000008D7000008F3
:10007000D7000008D7000008D700000800000000E3
:10008000D70000080000000000000000D121000897
:1000900000000000D7000008D7000008D7000008C3
:1000A00000000000D700000800000000D700000892
:1000B0000348854600F052FA00480047A125000891
:1000C000E80600200448804704480047FEE7FEE7B2
:1000D000FEE7FEE7FEE7FEE775210008B100000835
:1000E00030B50B46014600202022012409E00D46D0
:1000F000D5409D4205D31D469540491B2546954058
:1001000040191546521E002DF1DC30BD70B500249B
:100110002546002801DA01244042002901DA0125A0
:100120004942FFF7DDFFAC4200D04042002C00D036
:10013000494270BD10B5202A04DB0846203AD04061
:10014000002110BD0B46D340D0402024A21A91407C
:100150000843194610BD03460B439B0703D009E033
:1001600008C9121F08C0042AFAD203E00B780370F2
:10017000401C491C521EF9D270470000F0B50746DA
:100180000846584087B0C00F049048000E465900FA
:1001900040084908BC1A884105D2384631461E46F7
:1001A00017460B4602465800400810434CD0300D0D
:1001B000039040055900400D490D0590401A0290EA
:1001C000402872DA18030121000B09050843019049
:1001D00004980092002805D00199524200208841DD
:1001E00000920190029840210A1A0199009800F0AB
:1001F00033F905460C466B4607CB00F03DF9C019B4
:100200007141039A0E0D0023D71756401A467A40C3
:10021000164344D0049A002A2DD0029A012A039A48
:1002200015DC1205C01A914101263605001C7141EA
:10023000D20F059ED2070093019202962A462346CA
:1002400000F03AF907B0F0BD38463146FAE7160536
:10025000224A0F46B218C01AB74101210905001CF5
:100260004F4100187F41114618187941E20F1043A1
:100270006D19644113E0E2076D0815436408C20775
:100280001443039A01261205C01A91413605001C39
:100290007141CE07400830434908C01851412A46F1
:1002A000234600F0FCF8CDE7FFE704980122400068
:1002B000C117121A00238B4104983146C417381A0B
:1002C000A141EEE730B40124E407634030BC55E7B8
:1002D00030B40124E407614030BC4FE70000E0FF88
:1002E000F0B51FB488B00B990998002448400999CB
:1002F000C00F490049080991C0070B9900904900B7
:1003000049080B9109990898A64608431CD00B99F7
:100310000A98084318D0099801244000420D48006B
:10032000410D099824050003000B204309900B9808
:100330000003000B20430B9050181C49401800226A
:1003400001901446104605E0002001460DB0F0BDB6
:10035000032801DA034600E003239C46C11A0AAED3
:100360000AE05F0008ADED5B4F00F75B7D430027BF
:10037000AA187C41491C5B1E6145F2DD410004ABBB
:100380005A522104120C0A43240C401C0828DFDBBB
:10039000019802900099704601910090059B049A83
:1003A0000799069800F088F8D0E700000DFCFFFFE1
:1003B0000EB5C217C10F5040CA0740180021054BA7
:1003C0000293019200910A460B4600F075F803B0C3
:1003D00000BD0000330400000EB505490291002164
:1003E00000910A460B46019100F066F803B000BD8B
:1003F000330400004A0009030123090B1B051943BC
:10040000094B10B5520D9A4201DA002010BD064B7F
:1004100034339A4203DC9A1AFFF78CFE10BD03496D
:100420005118884010BD0000FF030000CDFBFFFF06
:1004300010B5002904DB0124E40740428C41214629
:10044000002B04DB1C460123DB075242A3418B42F5
:1004500000D1824210BD000010B5202A04DB014605
:10046000203A9140002010BD914020239C1A034661
:10047000E3401943904010BD10B5202A06DBCB178E
:100480000846203A1041C1170B4306E00B461341C2
:10049000D0402024A21A91400843194610BD10B53F
:1004A000002B08DA0024401C614192185B411A437A
:1004B00001D14008400010BDF0B51FB482B0054620
:1004C0000C0003D0084601F0DBFF02E001F0D8FF8A
:1004D00020300246009021462846FFF7BDFF049BCE
:1004E000059A04460F4618431143084314D0184692
:1004F00010431BD0009840210A1A18460599FFF7AF
:1005000019FE05460E46009A05990498FFF7A4FFC8
:10051000084305D0012004E02046394607B0F0BD6D
:100520000020C11705430E432C43374300990E9812
:100530006305401A7905E40A00220C43FD0A0A30DB
:1005400002D500200146E9E70105101969410C9C1C
:100550000D9D00196941FFF7A2FFDFE7064C012559
:10056000064E05E0E36807CC2B430C3C984710345B
:10057000B442F7D3FFF7A0FD94260008B426000884
:10058000F8B5044600200090206881688907890F2B
:10059000012905D10168C9072CD1C168090429D4F2
:1005A0008168154A102611400125002915D181685E
:1005B00029438160124811490068FFF791FD00E06E
:1005C000401E00900028FBD100F072FD07460CE0B1
:1005D00000F06EFDC01B022807D9606C30436064D8
:1005E000A06C2843A0640120F8BD20680068C043C7
:1005F000C007EDD10020F8BD1700008040420F0079
:100600000400002010B5024800F004F810BD0000FE
:100610009C02002010B5044600688047A071217933
:1006200000292AD0E189491CE1816179814201D107
:10063000E07100E06071607A002802D0A089401C5F
:10064000A081A07A002818D0104800220378012148
:10065000002BE37903D0002B05D0027003E0002BC0
:1006600001D101702172E37A002B06D04378002B70
:1006700004D0217A002900D0427010BD227A002ACD
:10068000FBD14170207C401C207410BD090000206B
:10069000064805490122016002710021C171017201
:1006A0004272817270470000E12500089C02002020
:1006B00010B5022000F040FC10BDFEE710B5044666
:1006C000016801208847616801208847616800202F
:1006D000884721680020884710BD10B5044601688E
:1006E00001208847616800208847616801208847A9
:1006F00010BD70B516460C460546FFF7DFFF2146D4
:10070000284600F008F83146284600F004F828464C
:10071000FFF7E3FF70BD70B50E4604460025616823
:10072000300601D5012000E0002088472168012023
:1007300088477006060E2168002088476D1CEDB2C0
:10074000082DECD361680120884721680120884783
:1007500021680020884770BD06490020C86106480E
:1007600001690422114301610169402211430161C1
:1007700070470000B000002000200240064A00211F
:10078000D16106490A6902231A430A61486108696E
:100790004022104308617047B00000200020024052
:1007A00010B5054B0022DA61044A13690124234382
:1007B0001361018010BD0000B00000200020024045
:1007C0000949C868C206094803D5C26902231A4309
:1007D000C261CA68520703D5C26901231A43C261C4
:1007E0001420C8607047000000200240B0000020C4
:1007F00070B5044600F05CFC0546104E0AE0601C33
:1008000008D0002C04D000F053FC401BA04201D9BA
:10081000032070BDF068C007F1D1F068800601D5F3
:100820002020F060F068C00602D4F068400703D5CD
:10083000FFF7C6FF012070BD002070BD0020024000
:1008400010B500F077F8034901F04EFE02494882E6
:1008500010BD00005801002058020020F0B585B0FE
:100860001B4F00246D460426324639462846049420
:10087000FFF771FC68460088164988421FD100F0D6
:100880003FFB0120039004A90297019401A800F006
:100890009FFA324610496846FFF75DFC04CD0023FD
:1008A000E119022000F0EEFA241DE4B2B442F5D3BF
:1008B00000F0DEFA324639466846FFF74CFC6946DE
:1008C00006480988C18069464988C18205B0F0BDE3
:1008D000003C0008FFFF00008E26000858020020A0
:1008E000F0B585B00024114804940394C18A6A4687
:1008F000D181C08803AD0426908100F001FB012066
:100900000B4F029004A901970094684600F060FA2A
:1009100004CD0023E119022000F0B4FA241DA4B292
:10092000B442F5D300F0A4FA05B0F0BD580200209F
:10093000003C000810B5064800F01CFA0A210448E3
:1009400000F0B8F9024800F0D7F880B210BD0000FE
:10095000D0000020F8B5054604464035287800262A
:10096000012808D001202870206881688907890F34
:10097000012908D101E00220F8BD0168C9072AD188
:10098000C168090427D4616CFF220132914302221D
:1009900011436164816892071143816000F088FB14
:1009A00007460EE000F084FBC01B022809D9606CEA
:1009B0000221884310210843606400202870012030
:1009C000F8BD206880680028ECDB606C800880003F
:1009D000401C606404E0606C2021084360640126D0
:1009E000002028703046F8BDF8B500250446403494
:1009F00000952278012A39D0012323700268966875
:100A0000760767D4384F4E68BE424DD0966A0F784D
:100A1000BB401E4396620123826B1B079A421FD084
:100A2000012A1DD0022A1BD0032A19D0042A17D06C
:100A3000052A15D0062A13D0072A11D002688B6820
:100A400056697607760FB3420AD05369DB08DB009C
:100A50005361006842690B7A5B075B0F1A4342617E
:100A60000868102804D0112802D038E00220F8BD10
:100A70001E4B9A68102807D00120800502439A6017
:100A80000868102803D02AE00120C005F6E71948BD
:100A900017490068FFF724FB0A21484300E0401E85
:100AA00000900028FBD11AE0906A0E78B34098437A
:100AB00090620868102801D0112810D10B498A686B
:100AC000102804D00120800582438A6007E00120BD
:100AD000C005F9E7416C2022114341640125002043
:100AE00020702846F8BD00000110000000270140DA
:100AF00040420F00040000200068006C70470000B6
:100B0000F8B500250446002803D0606C002802D008
:100B100008E00120F8BD0020A064402108552046CF
:100B200000F0A8F8606C1022104270D12068816833
:100B300049076CD4616C1301994302231943616422
:100B400081688907890F012905D10168C9070FD17B
:100B5000C16809040CD4C1681826B143A6683143A2
:100B6000C1602068016966688900890831430161B4
:100B70002068C1683D4E3140C160A0698103E069D1
:100B8000C0030143206A46033143666B012E02D045
:100B90000126360300E000263143E668314326692A
:100BA000022E08D000263143266B76003143666A58
:100BB000012E02D00BE00426F5E7002828D0606C57
:100BC000202630436064A06C01263043A064A06AF4
:100BD0000646FF3EC23E02D0E66A3043014320682B
:100BE000C6680E43C6600126A06B3607B04213D01C
:100BF000012811D002280FD003280DD004280BD0D3
:100C0000052809D0062807D0072805D010E028E0DD
:100C1000012000040143DAE720684669F608F6007F
:100C2000466120684669278F7F077F0F3E434661F4
:100C30002068C0680E4E3040884207D10020A06472
:100C4000606C80088000401C606408E0606C984321
:100C500010436064A06C01210843A064012528466C
:100C6000F8BD606C10436064F8E700001902FEFFF5
:100C7000E7FF3F8300B500680C4987B0884212D176
:100C80000B48826941150A438261806908400590DA
:100C90000220009003200190002002900920694664
:100CA000C00600F055F907B000BD00000024014067
:100CB00000100240F8B504464069274640370D460B
:100CC00008280BD02068C068C00709D0606C2021BC
:100CD00008436064002038700120F8BD082600E059
:100CE0000C2600F0E5F9009011E0681C0FD0002DF3
:100CF00005D000F0DDF90099401AA84207D9606CD0
:100D0000042108436064002038700320F8BD206887
:100D100000683042E9D0606C0121490208436064F8
:100D20002068C1680C220905890F00291AD1216A9F
:100D3000002917D10168090714D5816801234907E3
:100D4000002908DB416891434160606C19028843C7
:100D50001843606406E0606C202108436064A06C66
:100D60001843A064A069002801D120680260002017
:100D7000F8BD000070B50446216800208968490765
:100D800021D425464035297801291CD0012129701C
:100D9000E169012904D02046FFF7F2FB002811D1B8
:100DA000616C0A4A1140FF22013211436164002143
:100DB000A164297022681C21116021688A680423BB
:100DC0001A438A6070BD022070BD0000FEF1FFFF73
:100DD000F8B5054623480F46017E012601290BD0B0
:100DE000012101762868204C012807D02046FFF712
:100DF000FFFC002813D030E00220F8BD2046FFF7AA
:100E0000F7FC002829D1FFF7A7FC2046FFF7F0FCEC
:100E10000646164801690422914301611DE0002045
:100E2000C04338606C6812E02046FFF7A7FC0E480C
:100E3000FFF7DEFC06460D4801690222914301617D
:100E4000002E01D03C6008E0012080022418A86830
:100E5000696880024018A042E6D802480021017665
:100E60003046F8BDB000002050C300000020024012
:100E7000034801698022114301610020704700008E
:100E800000200240F0B51FB405461A480024017E38
:100E900016461F46012907D0012101761648FFF7A3
:100EA000A7FC002803D021E0022005B0F0BD012DF1
:100EB0001AD0022D18D0042516E0220130463946FA
:100EC000FFF738F981B2019862001018FFF768FC4B
:100ED0000948FFF78DFC09490A69520852000A6166
:100EE000002803D1641CE4B2AC42E6D301490022DD
:100EF0000A76DAE7B000002050C30000002002406C
:100F000005480169090605D5044941600449416065
:100F100000207047012070470020024023016745F0
:100F2000AB89EFCD022803D102480178491C01703A
:100F3000704700007802002010B504494A69024257
:100F400002D04861FFF7EEFF10BD00000004014031
:100F5000F8B500228DE001249440A44623407DD0C2
:100F60004C68022C01D0122C0CD1D408A4002618F5
:100F7000356A5407E40E0F27A740BD430F69A74009
:100F80002F433762066855000324AC400F79A6430F
:100F9000BF07BF0FAF40374307604E68012E05D033
:100FA000022E03D0112E01D0122E0ED18668CF68EA
:100FB000A643AF403743876047686646B7430E791C
:100FC000F606F60F96403E434660C668A6438C6818
:100FD000AC403443C4604C68E40049D5284CA56952
:100FE00001263543A561A469950834400094254C39
:100FF000AD002F19BD689407240F0F26A640B543F6
:101000000926F606B04201D100260FE01E4EB0427E
:1010100001D101260AE01D4EB04201D1022605E0B1
:101020001B4EB04201D1032600E00526A6402E4308
:10103000BE60184D2C684E689C43F60300D51C43D7
:101040002C606C684E689C43B60300D51C436C60F2
:10105000AC684E689C43F60202D500E008E01C43F1
:10106000AC60EC684E689C43B60200D51C43EC6053
:10107000521C0B681C46D44000D06CE7F8BD000041
:101080000010024000000140000400480008004831
:10109000000C0048000401400069084000D0012015
:1010A0007047002A01D0816170478162704700005B
:1010B00001480068704700000000002002480168F5
:1010C000491C0160704700000000002010B5064870
:1010D0000168102211430160002000F007F800F0C1
:1010E00017F8002010BD00000020024010B5044693
:1010F00000F0C0F87D21C900FEF7F2FF00F004FB0C
:1011000000222146501E00F029F8002010BD0000EA
:1011100008B50C4881690122114381618069104042
:10112000002200901146501F00F018F800221146CE
:10113000901E00F013F800221146501E00F00EF829
:1011400008BD000000100240C106C90E0120884001
:10115000014908607047000000E100E010B500F0B0
:1011600057FD10BDF8B504463F480E460068C0075D
:10117000C00FB0420AD23C480168490849003143D7
:1011800001600068C007C00FB0425CD12078374FC3
:10119000800705D57868F0218843A1680843786006
:1011A0002078C0073FD06068012813D03968022832
:1011B00013D08907002946DA796889088900014334
:1011C0007960FFF775FF0546606801280DD0022899
:1011D00017D024E039688903ECE78901EAE7FFF7D3
:1011E00067FF411B2248814217D878680007800FAB
:1011F0000128F4D117E0FFF75BFF411B1C48814237
:101200000BD878680007800F0228F4D10BE0FFF7B5
:101210004FFF411B1648814201D90320F8BD786871
:101220000007800FF3D110480168C907C90FB14208
:101230000BD9016849084900314301600068C007C3
:10124000C00FB04201D00120F8BD2078400706D57C
:101250007868072109028843E16808437860002024
:10126000FFF744FF0020F8BD0020024000100240BC
:101270008813000010B500F011F805494968054AC7
:101280000906090F515CC8400349086010BD000001
:1012900000100240602600080400002010B513A0D2
:1012A0000FC888B06C460FC414A00FC80FC4174BEA
:1012B0005A680C2011460140154804290FD008290E
:1012C0000DD19102090F6C46645CD96A04AB090721
:1012D000090F595CD20304D5FEF702FF604308B042
:1012E00010BD0C4920464843F9E7000002030405FD
:1012F000060708090A0B0C0D0E0F1010010203045B
:1013000005060708090A0B0C0D0E0F10001002400D
:1013100000127A0000093D00F8B504460078E04D5F
:10132000C0075FD068680007800F012807D0686891
:101330000007800F022809D16868C00306D5286815
:1013400080034FD5606800287ED04BE028680126D6
:101350003604B04328602868B10088432860FFF74E
:10136000A7FE074604E0FFF7A3FEC01B64286CD865
:1013700028688003F7D4606801280CD0002801D0C9
:1013800005280AD029682846B14329602968012226
:101390009204914309E0284605E029682846012285
:1013A000920411432960016831430160606800289C
:1013B0000CD0FFF77DFE064604E0FFF779FE801BA8
:1013C0006428D4D828688003F7D50BE0FFF770FEB7
:1013D000064604E0FFF76CFE801B6428C7D8286827
:1013E0008003F7D420780126800700283DDA68685A
:1013F0000007800F07D068680007800F022809D116
:101400006868C00306D42868800715D5E0680128FD
:101410001AD111E0E0680028286817D0304328600E
:10142000FFF746FE074604E0FFF742FEC01B022816
:101430009DD828688007F7D52868F8218843216956
:10144000C9000843286010E027E1BCE040084000E4
:101450002860FFF72DFE074604E0FFF729FEC01BBA
:10146000022884D828688007F7D42078000721D57F
:10147000206A0028686A0ED030436862FFF718FEC1
:10148000074604E0FFF714FEC01B022899D8686ADB
:101490008007F7D50EE0400840006862FFF708FEBD
:1014A000074604E0FFF704FEC01B022889D8686ADB
:1014B0008007F7D42078400766D5E869012109073D
:1014C0000843E861E86908400090764801688215A1
:1014D00011430160FFF7ECFD074604E0FFF7E8FD6C
:1014E000C01B64286FD86F480068C005F6D5286A0D
:1014F000400840002862296A042081432962FFF7DE
:10150000D7FD074605E0FFF7D3FDC11B66488142C2
:1015100059D8286A8007F6D4A068012812D000287C
:1015200001D0052810D0296A4908490029622A6A91
:1015300004218A432A62A068002818D0FFF7B8FD6A
:10154000074610E0284604E0296A28460422114391
:101550002962016A31430162EDE7FFF7A9FDC11B72
:10156000514881422FD8286A8007F6D50CE0FFF752
:101570009FFD074605E0FFF79BFDC11B4A488142DE
:1015800021D8286A8007F6D42078C00639D560694A
:1015900001280DD0401D27D0686B042108436863E3
:1015A000686B400840006863FFF782FD064625E04F
:1015B000696B042001436963686B30436863FFF71C
:1015C00077FD064605E061E0FFF772FD801B02280B
:1015D0005CD8686B8007F7D5686BF8218843A169F0
:1015E000C900084368630CE0696B042081436963A8
:1015F000F2E7FFF75DFD801B022847D8686B800784
:10160000F7D4606A002846D069680907890F022963
:1016100043D001273F060228286805D0B843286038
:10162000FFF746FD044633E0B8432860FFF740FD6E
:10163000064604E0FFF73CFD801B022826D82868F8
:101640008001F7D4E86A216B000900010843E862D1
:10165000A16AE06A084369683D2212049143084385
:101660006860286838432860FFF722FD044604E0DC
:10167000FFF71EFD001B022808D828688001F7D557
:1016800009E0FFF715FD001B022801D90320F8BD72
:1016900028688001F5D40020F8BD0120F8BD0000C5
:1016A000001002400070004088130000042204492A
:1016B0000428086902D09043086170471043FBE793
:1016C00000E000E000B500F03DFF0E49012208797E
:1016D0000023401CC0B208710A700A2804D10B71A3
:1016E0004879401C48714A7048790A2804D14B71E6
:1016F0008879401C88718A7088790A2801D18B7199
:10170000CA7000BD28000020094910B5401E88425B
:1017100001D9012010BD074C60610321081F00F0B2
:1017200077FA0020A06107202061002010BD000092
:10173000FFFFFF0000E000E010B5FFF7C3FF10BDA2
:101740007047704770B5040005D025462035687E87
:10175000002802D006E0012070BD00202876204637
:1017600000F00AF802206876211D206800F038FD9C
:1017700001206876002070BD08B5006809498842DC
:101780000FD10948C26981150A43C261C0690022AC
:101790000840009011461320FFF7E0FC1320FFF7EC
:1017A000D3FC08BD00200040001002400222014688
:1017B00020314A760068026801231A4302604B76A2
:1017C00000207047704770B5044600680169002525
:1017D000C9438907002915DBC168C943890711D4AA
:1017E000E91E01610120207620688069800720467B
:1017F00002D0FFF7E7FF04E000F096F8204600F083
:1018000094F8257620680169C943490717D4C1684F
:10181000C943490713D40421C9430161022020763A
:10182000206880698005800F204602D0FFF7CAFF3C
:1018300004E000F079F8204600F077F8257620687B
:101840000169C943090716D4C168C943090712D4FD
:101850000821C9430161042020762068C0698007FF
:10186000204602D0FFF7AEFF04E000F05DF820460E
:1018700000F05BF8257620680169C943C90617D4D2
:10188000C168C943C90613D41021C94301610820A6
:1018900020762068C0698005800F204602D0FFF7BF
:1018A00091FF04E000F040F8204600F03EF8257675
:1018B00020680169C943C90708D1C168C943C9077C
:1018C00004D1891E0161204600F030F820680169CA
:1018D000C943090609D4C168C943090605D4802152
:1018E000C94301612046FFF72BFF20680169C94306
:1018F000490609D4C168C943490605D44021C943F2
:101900000161204600F013F820680169C943890687
:1019100009D4C168C943890605D42021C94301619E
:101920002046FFF70EFF70BD704770477047704745
:1019300010B50378002B10D0002303701078084CEA
:10194000002801D0137023812089401C80B220819F
:10195000884202D92381012010BD002010BD000063
:101960002800002010B5054B002801D0002200E01F
:10197000012201211846FFF794FB10BD0014004816
:1019800010B5FEF729FD064A064BFEF7A9FC00221A
:10199000054BFEF7F3FBFEF72DFD80B210BD0000F6
:1019A000333333333333D33F00003E4010480323F7
:1019B000818AC08A081A01B20D482030427A002A72
:1019C00012D0012A0CD0022A0ED0032A07D10529F1
:1019D00001DD002242724A1D01DA01214172704785
:1019E0000029FCDD0221F9E70029F8DC4372704789
:1019F000580200200248818C491C818470470000F5
:101A000058020020FF211348E1318181C821418122
:101A10006421C1814B21C900018200224282192127
:101A200081820283428382830B4941840146C283BF
:101A30002031CA710A724A728A718A72CA720A7332
:101A40000649016306490164064941630649816309
:101A50007047000058020020FC08000065190008CB
:101A600081190008410800086D1A00080648074A55
:101A700001781378994202D10021C1727047012385
:101A8000C372117070470000780200200800002027
:101A900010B5034C216C608A8847A08210BD0000FD
:101AA000580200203EB514481249016000214160EF
:101AB0008160C1608161C161016241620124C162D2
:101AC00004610422446342610163FFF719F80028AE
:101AD00001D0FEF7F2FD0120000301900004029006
:101AE000009469460448FEF77FFF002801D0FEF706
:101AF000E4FD3EBD00240140D0000020F0B52A489E
:101B000087B04269012189050A43426142690A405E
:101B10000592426949110A43426142690A400592AD
:101B2000426949000A4342614069204F08400590DC
:101B3000002201213846FFF7B4FA03267602092075
:101B400000223146C006FFF7ACFA012500240095BB
:101B500002946946384601950394FFF7F9F9642029
:101B60006A4631C209206946C006FFF7F1F9022032
:101B700000900F480190694602940E48FFF7E8F97B
:101B8000092002946946C006009601950394FFF768
:101B9000DFF9002211460520FFF7E0FA0520FFF7E4
:101BA000D3FA07B0F0BD0000001002400014004856
:101BB000000011100004004810B5094807490160F1
:101BC000002207218260416031210261C160FFF77C
:101BD000B9FD002801D0FEF770FD10BD00200040C7
:101BE0001C010020F8B50024084E27460C20604355
:101BF0008519A878012804D1A868002801D0804759
:101C0000AF70641CE4B20A2CF0D3F8BD340000209D
:101C10008307FF22DB0E9A408907090E99400028AE
:101C20000BDA0007000F0838830808489B001818D3
:101C3000C36993430B43C3617047830804489B0007
:101C40001818036893430B430360704700ED00E0EE
:101C500000E400E0064805490160064941600121B1
:101C6000017200214172C17270470000F92500081D
:101C7000B00200200726000810B5024800F004F862
:101C800010BD0000B0020020F8B50446006880478F
:101C9000054660688047364EB1788D4202D1F178B2
:101CA000884217D07778012102223B0000F0FFFB29
:101CB00005041322314157000023E3726372002DA3
:101CC00002D0337813433370327802433270B570E8
:101CD000F0707170F8BD31788906090E3170002DF1
:101CE00001D011433170C9B201433170B570F07049
:101CF0007270F8BD31788906090E3170002D01D05F
:101D000011433170C9B201433170B570F0700320D6
:101D10000DE031788906090E3170002D01D0114394
:101D20003170C9B201433170B570F0700420707029
:101D3000F8BD3078872818D008DC1E2815D02D284B
:101D400010D04B280ED0782806D10EE0B42809D048
:101D5000D22807D0E12808D00020E072607200206D
:101D60003070E4E7E1726172F9E7E272FBE70000CC
:101D70000B0000200D49012008740D48C279002A8B
:101D80000ED00C4A4A610146203912228A5E498CE3
:101D90008A4204DA084A022111700021C171704799
:101DA000007A0028FBD0054848617047BC0200203B
:101DB000780200207E2600082000002082260008ED
:101DC00010B50948016B00208847084801210174BB
:101DD0000749416104482030C07A002802D00549F3
:101DE0000220087010BD000058020020BC02002034
:101DF000862600082000002010B5FFF72BFF0121E8
:101E0000022000F08DFBFEF743FC0121084600F0A4
:101E100087FB00F0F3FA0121002000F081FBFEF7C0
:101E20001DFDFFF7EFFD0121042000F079FB0121EA
:101E3000052000F075FB0121062000F071FB012157
:101E4000072000F06DFB0121082000F069FB012153
:101E5000092000F065FB02490120087010BD000058
:101E600020000020F8B52C4E2C4AF0782C492D4D3E
:101E7000002400280FD0012816D104201074088BEC
:101E80005082294A0F46D07A1823FB5E012815D0CC
:101E900002281ED026E001201074244B53613279B1
:101EA000002A02D0EC813471F8BDEA89642AFBD99A
:101EB000CA8A0A83F0703071EC81F8BDEC81D4726B
:101EC0005B1C18B2088310228A5E90420ADD0A83E6
:101ED00008E0EC81D4725B1E18B208830E228A5E81
:101EE0009042F4DBE879022701280BD1F470C8880E
:101EF0000A8B80188A8A801AC880FEF7F1FC06488F
:101F000008300770E889FF212D318842D5D9024871
:101F1000F47008300770F8BD18000020BC020020E3
:101F2000580200209C020020B00200208A260008EF
:101F3000F8B5364C364E607A2746203F032815D038
:101F4000B88A70821220385E798C0125884213DAB3
:101F50002E4914201622385EBA5E2039096B904251
:101F600006DA012088470520307409E0F88AE8E79E
:101F700000203074884703E0264904200870E5718A
:101F8000244E083E70780028607A07D001281DD1C1
:101F90000020B884B98AF180707017E0012814D14C
:101FA000B88C642812D91420385EF188401AFEF7E4
:101FB000FFF949000123490800229B07FEF738FA80
:101FC00003D2144904200870257275701248417AB2
:101FD000012904D1002141720E480321017031789A
:101FE0000E480029C17905D0012902D100213170A4
:101FF0008181F8BD012907D18089FF21F53188420F
:10200000F7D90449052008703570F8BD7802002022
:10201000BC02002020000020B00200209C02002012
:10202000F8B51E4800231E490374CA8A42821D4A1D
:102030000D46D07A162401261B4F2C5F012802D0B2
:1020400002280BD013E0BE70D372641E22B2CA8283
:102050000A20085E82420ADCC88208E0BE70D372A1
:10206000641C22B2CA820C20085E8242F4DC0F4853
:102070000D4CC07902250834012802D1FEF730FC4E
:102080002570094A1E21921C0948FFF751FC0028BF
:1020900002D0FEF725FC2570F8BD0000BC02002030
:1020A00058020020B0020020180000209C020020EE
:1020B0002A00002010B50D480078030000F0F7F961
:1020C0000604070A0D101306FFF796FE10BDFFF772
:1020D00077FE10BDFFF72CFF10BDFFF7A1FF10BD6D
:1020E000FFF748FE10BDFFF7BDFE10BD2000002029
:1020F0000348C07A002802D10249012008707047C5
:10210000780200202000002010B5FEF7D7FFFFF76F
:1021100013FB10BD10B592B0122000900120039067
:102120000590102004900024069009946846FFF75B
:10213000F3F8002800D0FEE707200D900E940F94CE
:10214000002110940DA8FFF70DF8002800D0FEE73D
:10215000FFF790F87D21C900FDF7C2FFFFF7D4FA21
:102160000420FFF7A3FA00221146501EFEF7F6FFE7
:1021700012B010BD1348016801221143016041688B
:10218000114A114041600168104A11400160016824
:10219000012292049143016041683F22120491435D
:1021A0004160C16A09090901C162016BFF22143251
:1021B00091430163416B49084900416300218160FB
:1021C00070470000001002400CB8FF08FFFFF6FE49
:1021D00010B50248FFF7F7FA10BD00001C010020FF
:1021E00070B50268164C174EA04201D0B04204D11F
:1021F000134670254A68AB431A43134B134DA04254
:1022000008D0B04206D0124EB04203D0984201D05E
:10221000A84204D103263602B243CE68324302609C
:102220008A68C2620A688262A04203D0984201D0E2
:10223000A84201D1096901630121416170BD00001B
:10224000002C0140000400400044014000480140CF
:102250000020004070B50C460A7805466821FEF75C
:1022600048FA62786A212846FEF743FAA2786C2180
:102270002846FEF73EFA70BDF8B50F4606460A211D
:102280003846FDF743FF0F4C0546615C8020014353
:102290000022304600F072F928460A21FDF736FF89
:1022A000615C0122304600F069F964213846FDF78F
:1022B0002DFF0A21FDF72AFF615C0222304600F063
:1022C0005DF9F8BD74260008F8B50F4606460A21E8
:1022D0003846FDF71BFF0E4C0546615C0022304678
:1022E00000F04CF928460A21FDF710FF615C01223D
:1022F000304600F043F964213846FDF707FF0A2114
:10230000FDF704FF615C0222304600F037F9F8BDAA
:102310007426000810B50A4B1A78521CD2B21A70F3
:10232000052A03D209B2FFF7CFFF10BD062A03D258
:102330000449FFF78FFF10BD0020187010BD00008A
:102340001000002070260008F8B50F4606460A2146
:102350003846FDF7DBFE0E4C0546615C0022304638
:1023600000F02EF828460A21FDF7D0FE615C01221C
:10237000304600F025F864213846FDF7C7FE0A21F3
:10238000FDF7C4FE615C0222304600F019F8F8BD8A
:102390007426000810B5084B5A78521CD2B25A70F5
:1023A000052A02D2FFF756FF10BD062A01D20349C3
:1023B000F8E70020587010BD1000002070260008BB
:1023C00070B50D4DAB885C1CAC80032B03D3002390
:1023D000AB8080231943002A08D0012A09D0022AA1
:1023E00003D10A466C21FEF784F970BD0A466821C4
:1023F000F9E70A466A21F6E71000002010B5074801
:1024000005490160064941600649C1601122482121
:10241000FEF76FF910BD000021260008BC02002065
:10242000332600084526000810B5024800F004F8DD
:1024300010BD0000BC02002010B5017C0B0000F0B4
:1024400036F80604120E16091A081221415EFFF72B
:102450003BFF10BD1221415EFFF776FF10BD418AA0
:10246000FFF758FF10BD4169FFF7F4FE10BD416949
:10247000FFF790FF10BD1221415EFFF7FDFE10BD7A
:102480002021020C01D010211046020A01D0104672
:102490000839020901D01046091F820801D01046F0
:1024A000891E420801D0881E7047081A704730B450
:1024B0007446641E2578641CAB4200D21D46635DE1
:1024C0005B00E31830BC184702E008C8121F08C1BF
:1024D000002AFAD170477047002001E001C1121FA5
:1024E000002AFBD17047000030B50C4D00222B882C
:1024F0005C1CA4B22C80802B02D26300C85201E085
:102500000020288000204300CB5A401C9A18C0B2FB
:102510008028F8D35002000C30BD0000AC00002031
:1025200030B5074C00220C235343E55C854201D1B2
:102530001B195970521CD2B20A2AF4D330BD0000C4
:1025400034000020F0B500200A4E0B4D01270C216D
:10255000414389194A78012A07D14300EA5A541E97
:10256000EC5202D28F708988E952401CC0B20A280E
:10257000EDD3F0BD34000020D402002010B5002AB5
:1025800008D0012A09D0022A03D10A466C21FEF79D
:10259000B0F810BD0A466821F9E70A466A21F6E755
:1025A000FEF794FDFFF7B6FDFFF7A8FAFFF77AFAFA
:1025B000FFF702FB0848FEF7CDF90848FFF7F6F8E9
:1025C0000A210548FEF776FB00F024F8FFF70AFB26
:1025D000FFF770FDFAE70000D00000201C0100208A
:1025E00010B509200421C006FEF756FD002801D0D1
:1025F000002010BD012010BD10B509202021C0060B
:10260000FEF74AFD10BD10B509204021C006FEF7B7
:1026100043FD10BD014900200870704720000020D4
:10262000024610B5012109204902C006FEF739FD16
:1026300010BD024610B5012109208902C006FEF72F
:1026400030FD10BD70B5012209259402ED0621462A
:102650002846FEF726FD21462846FEF71DFD70BDE3
:102660000000000001020304010203040607080938
:10267000000000003F065B4F666D7D077F6F79406D
:102680006D007940760071713F0038773900140091
:102690002C010000B426000800000020B00000005B
:1026A000C824000864270008B00000203806000095
:1026B000D82400080000000000127A000001010088
:1026C0000001010000000100000000000101000005
:1026D00001000000000000000000000000000000F9
:1026E0000000000000000100010000000A000000DE
:1026F000050600080000000064000000292400080E
:102700000200000001000000791C00080400000025
:10271000010000004108000805000000C80000009A
:102720006D1A00080600000064000000911A0008FD
:102730000900000064000000F1200008070000000C
:1027400064000000F51900080800000032000000D5
:10275000AD190008000000000000000000000000AB
:042760000000000075
:04000005080000B13E
:00000001FF
